:020000040800F2
:10000000FCFF002005270000252700002527000011
:1000100025270000252700002527000025270000B0
:1000200025270000252700002527000025270000A0
:100030002527000025270000252700002527000090
:100040002527000025270000252700002527000080
:100050002527000025270000252700002527000070
:100060002527000025270000252700002527000060
:100070002527000025270000252700002527000050
:100080002527000025270000252700002527000040
:100090002527000025270000252700002527000030
:1000A0002527000025270000252700002527000020
:1000B000A125000025270000252700002527000096
:1000C0002527000025270000252700002527000000
:1000D0002527000025270000252700007D2500009A
:1000E00025270000252700002527000025270000E0
:1000F00025270000252700002527000025270000D0
:1001000025270000252700002527000025270000BF
:1001100025270000252700002527000025270000AF
:10012000252700002527000025270000252700009F
:10013000252700002527000025270000252700008F
:10014000252700002527000025270000252700007F
:1001500083B0CDF800E000F0FF031A09104603F069
:100160000F02134614E0194A02921FE0184A029245
:100170001CE0184A029219E0174A029216E0174A48
:10018000029213E0164A029210E0164A02920DE023
:100190000028E8D00128E9D00228EAD00328EBD0D3
:1001A0000428ECD00528EDD00628EED0012212B2AA
:1001B0009A40ADF8042002980A46BDF8041000F0F9
:1001C000A9FADDF800E003B0704700BF0008014065
:1001D000000C0140001001400014014000180140D3
:1001E000001C01400020014001480068704700BF2A
:1001F0009401002081B0194900EA0101084600225B
:100200000EE0042022E0082020E010201EE0202044
:100210001CE040201AE0802018E040F2001015E0B9
:100220000F498842EDD00F498842ECD00E498842F0
:10023000EBD00E498842EAD00D498842E9D00D49F9
:100240008842E8D00C498842E7D010460B4909683B
:1002500041EA000209490A6001B0704700FCFFFF53
:1002600000080140000C0140001001400014014052
:1002700000180140001C01400020014018100240FD
:1002800082B0CDF800E0034619460191FFF7ACFFBC
:1002900040F2E83100FB01F201990A601F49097838
:1002A000C1F30311C8B21E4909180878C0B21A1D5B
:1002B0001968C140116019490988C1F3022188B247
:1002C000174909180878C0B203F20802191D096815
:1002D000C140116011490988C1F3C22188B2104997
:1002E00009180878C0B203F20C02191D0968C14050
:1002F00011600A490988C1F3813188B20949091896
:100300000978C8B203F2100203F20C010968B1FBCC
:10031000F0F11160DDF800E002B070470410024017
:10032000282A00009C10000081B00168C1F38010F1
:1003300001B07047014640F2000340F2000082B273
:100340000846C118097821B15B1C9BB2521C92B2BD
:10035000F7E790B27047FFFF93B20A46014640F2BA
:10036000000440F200001FFA80F810469AB2EAB189
:100370000B191D78EEB2631C9FB200EB08031C78CA
:100380005FFA84F908F101081FFA88F8A54207D03E
:100390004E4502D2FF2040B201E0012040B207E00A
:1003A00006B903E0521E92B2BCB2E0E7002040B2B0
:1003B0007047FFFF81B0CDF800E0012252B23E4904
:1003C0000A6000F268010B686FF0006103EA010245
:1003D000144603F00061C90E0B4602F00041B1F172
:1003E000004F02D135490A6801E035490A6804F432
:1003F0007021090C0E464FF6FF7104EA01010D460B
:1004000004F44011B1F5401F0DD16FF0706102EAA4
:1004100001010E462A490A686FF070610A402849B6
:100420000A60324616E004F48011B1F5801F09D14C
:100430004FF00301B140C94302EA010141F070618C
:100440000A4607E0610D090105FA01F1C9430A40B6
:1004500042F070622BB1610D090105FA01F10A4306
:10046000FFE704F00041B1F1004F02D113490A60E7
:1004700001E013490A6040F2000A81464FEA8A010E
:1004800009EB01010968B1F1FF3F10D009F1340116
:100490004FEA8A03C91809680A4609EB030109688B
:1004A00008461146FFF754FE0AF1010AE6E7DDF8B7
:1004B00000E001B0704700BF000342421C00014051
:1004C0000400014081B00268C2F3401101B9FAE7AB
:1004D000011D096888B201B07047FFFF81B0016853
:1004E000C1F3401001B0704781B0CDF800E003487F
:1004F000FFF7E8FFDDF800E001B07047004C004076
:1005000081B0044640F20000ADF8002082B20846F7
:10051000BDF8001059B183181B782370237813B1EC
:10052000521C92B2FFE7641C491E89B2F2E701B087
:100530007047FFFF81B0CDF800E00348FFF7CEFF22
:10054000DDF800E001B07047004C004081B0CDF80C
:1005500000E004462046FFF7EDFEC5B2204601F05C
:10056000D7F80124EBB20D4909888C4211D222013F
:100570000B4989180988994208D12201084989182C
:10058000091D0968814201D1A0B203E0641CA4B234
:10059000E9E70020DDF800E001B07047D00300205B
:1005A000D403002081B0ADF800100146BDF8000072
:1005B0000B68C3F3C01202B9FAE70A1D106001B05C
:1005C0007047FFFF81B0CDF800E00348FFF786FFDA
:1005D000DDF800E001B070470050004081B0CDF878
:1005E00000E00348FFF7A0FEDDF800E001B070472F
:1005F0000050004081B0CDF800E00348FFF794FEC2
:10060000DDF800E001B07047004C004085B0CDF847
:1006100000E0824602918DF80C208DF81030504693
:10062000FFF788FE8DF81100C4B2102C02D91024F7
:100630008DF81140012751469DF80C40A7423FD24A
:10064000032404FB07F5029C641901912046FFF77F
:1006500071FE0199C2B240F2000C8A46F9B25FFA0B
:100660008CFB5FFA82FC9DF81140A34523D20AEB74
:100670000B06032404FB01F5029C64198DF8041099
:100680005FFA8CF231462046FFF766FE9DF80410B3
:1006900058B99DF810400CB9C8B212E09DF810404E
:1006A000012C02D15FFA8BF00BE00BF10104E0B2F8
:1006B0005FFA80FBD7E74C1CE5B25146EFB2BBE7CF
:1006C0000020DDF800E005B07047FFFF81B0CDF8F5
:1006D00000E00348FFF7F6FEDDF800E001B07047E8
:1006E0000050004081B0CDF800E00348FFF71CFE49
:1006F000DDF800E001B070470048004081B0CDF85F
:1007000000E00348FFF710FEDDF800E001B070479D
:100710000038014081B0CDF800E08CB21546774B2F
:1007200000EA03031E461846FFF764FDB4F1FF0F0D
:100730000CD1734B9D4203D14FF033333360D9E07A
:10074000422D03D14FF044333360D3E04FF6FF73B3
:100750009C4214D16A4B9D4207D14FF03333336032
:10076000341D4FF033332360C4E0422D07D14FF0E6
:1007700044333360341D4FF044332360BAE000212A
:10078000002005F001030BB100211DE005F002037C
:1007900033B105F4C0730BB1082100E0042113E06C
:1007A00005F0040333B105F020030BB1042100E090
:1007B000002109E005F0080333B105F020030BB177
:1007C0000C2100E00821FFE74E4B05EA03030BB1C3
:1007D000032009E005F400730BB1022004E005F4E6
:1007E00080630BB10120FFE705F00C030BB101435F
:1007F000FFE704F0FF039BB2002B3BD037680020DB
:100800001FFA84F832462E4608282CD24FF00103F6
:1008100003FA00F408EA0403A34222D185004FF052
:100820000F03AB40DB4307EA030401FA05F344EA94
:1008300003031D4606F48173B3F5817F05D102F2EF
:1008400014044FF001038340236006F08203822BDF
:1008500005D102F210044FF00103834023602F46BC
:10086000FFE7401CD0E717601FFA88F00F463146BB
:10087000164602E00F462946A0B2B0F1FF0F39D963
:10088000331DD3F800800022082A30D202F2080477
:100890004FF0010303FA04F400EA0403A34224D155
:1008A00095004FF00F03AB40DB4308EA030807FA5B
:1008B00005F348EA030801F48173B3F5817F07D19A
:1008C00006F2140502F208044FF00103A3402B6066
:1008D00001F08203822B07D106F2100502F2080410
:1008E0004FF00103A3402B60FFE7521CCCE7331D00
:1008F000C3F80080DDF800E001B0704700FCFFFFA6
:10090000140008000008080081B0CDF800E003489A
:10091000FFF70AFDDDF800E001B070470044004039
:1009200081B0CDF800E00348FFF7CCFDDDF800E032
:1009300001B070470044004081B0CDF800E00348AA
:10094000FFF7CCFDDDF800E001B070470044004047
:1009500081B0CDF800E00348FFF7B4FDDDF800E01A
:1009600001B070470038014081B0CDF800E0034885
:10097000FFF7B4FDDDF800E001B07047004800402B
:1009800081B0CDF800E00348FFF7A8FDDDF800E0F6
:1009900001B070470038014081B0CDF800E0034855
:1009A000FFF790FDDDF800E001B07047004800401F
:1009B00089B0CDF800E0834698B28C46BDF824108B
:1009C0000A9E04ACADF80410ADF808002046FFF70D
:1009D00057FCBDF80800BDF80410644CA34512D1C3
:1009E00001256DB2624C2560624D634C2560634DFC
:1009F000634C2560634D644C2560644D644C2560F8
:100A0000079C039456E0634CA34512D101256DB2B7
:100A1000614C2560614D584C2560614D584C2560F6
:100A2000604D594C2560604D594C2560069C0394DF
:100A300040E05E4CA34512D101256DB25C4C2560AF
:100A40005C4D4D4C25605C4D4D4C25605B4D4E4CD6
:100A500025605B4D4E4C2560069C03942AE0594C62
:100A6000A34512D101256DB2574C2560574D424C1C
:100A70002560574D424C2560564D434C2560564DE0
:100A8000434C2560069C039414E0544CA34511D1BB
:100A900001256DB2524C2560524D374C2560524DA8
:100AA000374C2560514D384C2560514D384C2560F0
:100AB000069C0394ADF80410ADF808003046FFF72B
:100AC00079FCBDF80800BDF804100BF110050024F6
:100AD0002C600BF110052C680C432C600BF10C05FD
:100AE00000242C6018B140F4806080B2FFE70BF165
:100AF0000C052C6804432C600BF10C0601253468AE
:100B000065F34D3434600BF10C060125346865F350
:100B1000C30434600BF10C060125346865F38204CC
:100B200034600BF1140500242C60039D19246543E7
:100B30004FEA8C04B5FBF4F76424B7FBF4F4260108
:100B4000350964246C433C1B240104F232056424FF
:100B5000B5FBF4F404F00F0446EA04040BF10805B5
:100B6000A4B22C60DDF800E009B070470038014005
:100B700038034242ED0F00009801002051090000A7
:100B80009C01002081090000A0010020FD0600005A
:100B9000A401002000440040C4034242D10F0000E1
:100BA000210900003909000009090000004800403F
:100BB000C8034242091000009909000069090000B9
:100BC000E5060000004C0040CC034242411000000A
:100BD000E904000035050000F50500000050004064
:100BE000D003424225100000CD060000C5050000DC
:100BF000DD05000089B0CDF800E0069007910DF109
:100C0000040B0BF1110ADFF8B0C001F099FB0023CF
:100C100007222A490698FFF7F9FC8DF820000123E6
:100C2000072226490698FFF7F1FC8DF821000023E2
:100C3000062223490698FFF7E9FC8DF822000123DC
:100C400006221F490698FFF7E1FCC1B208B910203F
:100C500000E0C8B29DF82120841A9DF82130069A40
:100C6000D31801AA19461046A2B2FFF749FC01AAFF
:100C70001046FFF76BFCC1B2C2B21301114AD21881
:100C80000C321368079A1360079A141D0B010D4A62
:100C9000D218083212682260079A02F208039DF8FF
:100CA00020201A70079A0832531C9DF822201A70CF
:100CB000DDF800E009B07047042A0000F6000020CB
:100CC0000B010020D403002081B0CDF800E0044CDB
:100CD0002468A047C0B2DDF800E001B0704700BF53
:100CE000C803002081B0CDF800E0044C2468A04780
:100CF000C0B2DDF800E001B0704700BFCC030020B7
:100D000081B00091014600980B461C465A1C1546BE
:100D10000346421C10461A78227022780AB12B46EC
:100D2000F3E7084601B0704781B0FAB590EA0206D1
:100D30004CBF4FF000464FF000064FEA00214FEA4B
:100D400040031B0E12BF41F000414FF000002CE0A9
:100D5000FF2B26D04FEA02244FEA42052D0E12BF88
:100D600044F000444FF000001FE0FF2D19D05B1944
:100D7000A1FB0454002C5CBF64005B1E803424BFC4
:100D80005B1C64087E3BDCBF4FF000000DE0FF2BD6
:100D900007D24FEA142030F4000040EAC350304339
:100DA00003E0FF27FF0546EA0700BDE8FA4001B06F
:100DB0007047FFFF81B0CDF800E0044A89B2FFF729
:100DC000A9FCDDF800E001B0704700BF1400080086
:100DD00081B0CDF800E0019D2C4610B408B493B268
:100DE0008AB201460348FFF7E3FD02B0DDF800E0F8
:100DF00001B0704700480040302803D3392801D89B
:100E0000012100E00021C8B27047FFFF81B02DE949
:100E1000FA414FEA02244FEA42052D0E04D1002C7C
:100E200018BF4FF000006CE044F00044FF2D5FD08D
:100E30004FEA9404002A48BF64424FEA00214FEA77
:100E400040031B0E05D1002914BF4FF000001046CF
:100E500057E041F00041FF2B4BD04FEA91010028B1
:100E600048BF49425E1B41BF0F4621463C46764281
:100E700048BF2B46192E47BF44FA06F7C9194FF051
:100E8000000803E0C6F11C0704FA07F8002904BFB4
:100E90004FF0000035E046BF49424FF001074FF0E8
:100EA0000007A3F101034900FBD511F080040DD028
:100EB00001F0200548EA0508803128BF5B1C01F0DD
:100EC000400458EA040808BF21F480719B1CDCBF71
:100ED0004FF0000015E0FF2B0DD221F0FF014FEA8B
:100EE00041014FEA512040EAC35040EAC77008E090
:100EF00010464FEAD0774FEAC777FF204FEAC0503D
:100F00003843BDE8FA4101B07047FFFF81B006B534
:100F10004FEA40024FEA12627F3A44BF4FF00000AE
:100F200011E0D2F11F0209D94FEA002141F000413E
:100F3000D14000284CBF4842084604E000284FF04A
:100F4000004058BF401EBDE8064001B07047FFFF9B
:100F500081B0CDF800E04FF0420289B2FFF7DAFB32
:100F6000DDF800E001B0704781B0002808BF19E04B
:100F700006B554BF0146D0F100014FF09E0202D4E5
:100F8000521E4900FCD580312CBF521C49004FEA4B
:100F9000512141EAC25100284CBF41F000400846AF
:100FA000BDE8064001B0704781B0CDF800E0019D7A
:100FB0002C4610B408B493B28AB201460348FFF736
:100FC000F7FC02B0DDF800E001B0704700440040DB
:100FD00081B0CDF800E081B20348FFF7E3FADDF815
:100FE00000E001B0704700BF0044004081B0CDF880
:100FF00000E081B20348FFF7D5FADDF800E001B068
:10100000704700BF0038014081B0CDF800E081B2E8
:101010000348FFF7C7FADDF800E001B0704700BFF2
:101020000048004081B0CDF800E081B20348FFF7EE
:10103000B9FADDF800E001B0704700BF0050004091
:1010400081B0CDF800E081B20348FFF7ABFADDF8DC
:1010500000E001B0704700BF004C004081B0CDF807
:1010600000E0034C2468A047DDF800E001B07047C1
:10107000A801002081B0CDF800E0019D2C4610B4FD
:1010800008B493B28AB201460348FFF791FC02B05C
:10109000DDF800E001B070470038014002040608A6
:1010A00041F6FF27C0F2B7077F1EFDD100BF00BF8A
:1010B00000BF00BF00BF704781B00A4681B2002068
:1010C0008DB21146052805D20B1820221A70401C3B
:1010D000C0B2F7E70B1800221A70401EC0B20C18FD
:1010E0000A23B5FBF3F203FB125292B230322270A4
:1010F0000A22B5FBF2F292B295B202B902E0401EAA
:10110000C0B2ECE701B0704782B0CDF800E00190CA
:10111000022100F0D1FF01990348FFF7F1FDDDF84E
:1011200000E002B0704700BF33000020FFFFFFFF68
:1011300044F67F77C0F212077F1EFDD100BF00BFCB
:1011400000BF00BF00BF704701490860704700BF83
:101150009481224201490860704700BF9881214272
:1011600001490860704700BF9C81214281B0CDF8E1
:1011700000E002B5002802D5FFF7C8FE13E04FEAF1
:1011800040014FEA11617F393CBF4FF000000AE097
:10119000D1F11F0105D34FEA002040F00040C840C4
:1011A00001E00020401EBDE80240DDF800E001B093
:1011B0007047FFFF84B0CDF800E04FF0000340F22D
:1011C00000090FFA89F9024600F1010A1178ADF819
:1011D0000810BDF90810B1B1BDF90800FFF70CFE09
:1011E00088B15A481A46FFF79FFD0390BDF90810D1
:1011F000303909B208B2FFF7B7FE039AFFF706FECF
:1012000003465046DFE7BDF908102E2929D1504684
:101210000246411C8A461178ADF80810BDF9081045
:10122000D1B1BDF90800FFF7E7FDA8B147481A465C
:10123000FFF77AFD0390BDF90810303909B208B202
:10124000FFF792FE039AFFF7E1FD0346A9F10109BA
:101250000FFA89F95046DBE70FFA89F2184655462E
:1012600003E0554618460FFA89F2BDF908106529C2
:1012700007D0BDF90810452903D00FFA82F80246BD
:1012800047E040F2010424B240F200031BB2297887
:10129000ADF808106D1CBDF908102B2904D1297870
:1012A000ADF808106E1C13E0BDF908102D290DD102
:1012B0002978ADF80810691C0C464FF6FF7109B289
:1012C000ADF804102146BDF9044000E029460E4661
:1012D0001FB2034615B2BDF90800FFF78DFD80B1BE
:1012E0000A2109B207FB01F212B2BDF90810303928
:1012F00009B2511808B23178ADF80810761C07B25F
:10130000E9E707FB04F109B205EB01080FFA88F8D9
:101310001A46B8F1000F08DD0C48FFF705FD02463C
:10132000A8F101080FFA88F8F3E7B8F1000F08DA1E
:101330000748FFF7F9FC024608F101080FFA88F8A0
:10134000F3E71046DDF800E004B0704700002041EC
:10135000CDCCCC3D83B0CDF800E08DF808100278FC
:101360004AB102780190D0B2FFF778FE0198421C92
:1013700011460846F3E79DF80800FFF76FFE0A20C4
:10138000FFF76CFEDDF800E003B0704781B0ADF808
:1013900000100146BDF900000B78C2B2934207D09D
:1013A0000B46491C1A78002A01D1002001E0F3E71E
:1013B000084601B07047FFFF0A46014640F20004AC
:1013C00040F2000086B21046A3B2621C95B2CC185F
:1013D000B3B2721C96B2C2181278227022780AB187
:1013E000ACB2F1E77047FFFF81B0CDF800E000201C
:1013F000002804D0FFF776FC08B1FFF765FC4048F1
:10140000007800282DD000213E48017000213E4880
:1014100001703E480078022805D13D493D483E4CC8
:101420002468A0470BE03C493A48FFF7E3FB022160
:101430003648017036493748374C2468A0470021A8
:101440002F4801700021354801800021314801708A
:1014500000213348017000213248017000213248D8
:10146000017030480078002820D000212548017004
:1014700000212548017028492648FFF7BBFB0021C1
:101480002248017022492348234C2468A0470021A8
:101490002248018000211F4801700021204801706E
:1014A00000212048017000211F4801701C4800786D
:1014B000002820D00021134801700021124801703B
:1014C00015491448FFF796FB012110480170104997
:1014D0001048114C2468A0470021104801800021C9
:1014E0000C48017000210E48017000210D48017068
:1014F00000210D480170DDF800E001B0704700BF29
:10150000BD020020BE020020BC020020B602002066
:10151000B4020020C6020020AC020020C402002059
:101520008E0100208F0100201D010020D3B2024651
:1015300008B21146DDB2ECB26B1EDDB21CB1C3B213
:101540000B70491CF7E710467047FFFF0149086020
:10155000704700BF9881224281B0CDF800E0A9E039
:10156000012905D140F210016548FFF7F1FC04E0C4
:1015700040F210016248FFF71DFCBBE0012905D1D4
:1015800040F204015F48FFF7E3FC04E040F204018D
:101590005C48FFF70FFCADE0012905D142F20001E4
:1015A0005948FFF7D5FC04E042F200015648FFF726
:1015B00001FC9FE0012905D140F200415148FFF7AD
:1015C000C7FC04E040F200414E48FFF7F3FB91E016
:1015D000012905D140F600014A48FFF7B9FC04E0B3
:1015E00040F600014748FFF7E5FB83E0012905D1FC
:1015F00041F200014348FFF7ABFC04E041F2000177
:101600004048FFF7D7FB75E0012905D140F2010101
:101610003B48FFF79DFC04E040F201013848FFF72A
:10162000C9FB67E0012905D140F200413648FFF7C8
:101630008FFC04E040F200413348FFF7BBFB59E068
:10164000012905D140F200212F48FFF781FC04E079
:1016500040F200212C48FFF7ADFB4BE0012905D1FA
:1016600040F200112848FFF773FC04E040F200113B
:101670002548FFF79FFB3DE0012905D140F24001DD
:101680002248FFF765FC04E040F240011F48FFF7E5
:1016900091FB2FE0012905D140F280011B48FFF7A3
:1016A00057FC04E040F280011848FFF783FB21E07B
:1016B000012020E000283FF453AF01283FF45EAF43
:1016C00002283FF469AF03283FF474AF04283FF4C5
:1016D0007FAF05283FF48AAF06283FF495AF07286F
:1016E000A0D00828ACD00928B8D00A28C4D00B282C
:1016F000D0D0DDE70020DDF800E001B0704700BF8A
:10170000000801400010014000140140000C01409D
:1017100000214FF005040346C8B21A46591C0B4677
:101720001178CAB24AB100F00701C9B202FA01F158
:1017300089B26418401CC0B2EFE720467047FFFF33
:10174000026806490A60011D0A6805490A6000F23C
:1017500008010A6803490A60704700BFA801002019
:10176000C8030020CC03002000F230011C310A68BD
:1017700003490A60011D0A6802490A60704700BFF8
:10178000D8050020C002002001490860704700BF52
:10179000B481224201490860704700BFA80122427B
:1017A00001490860704700BF90012142014908606B
:1017B000704700BF8801224281B0CDF800E009499E
:1017C00002B440F2000340F2000240F20001FFF7D1
:1017D00051FC01B0044A05490A600020DDF800E030
:1017E00001B07047CC280000ED0F000090010020F0
:1017F00081B0CDF800E0094902B440F2000340F2A4
:10180000000240F20001FFF7CFFB01B0044A054996
:101810000A600020DDF800E001B0704738290000C0
:10182000D10F00009001002081B0CDF800E00949FF
:1018300002B440F2000340F2000240F20001FFF760
:10184000C7FA01B0044A05490A600020DDF800E04B
:1018500001B07047602800000910000090010020CE
:1018600081B0CDF800E0094902B440F2000340F233
:10187000000240F20001FFF797FB01B0044A05495E
:101880000A600020DDF800E001B070473829000050
:10189000D10F00009001002081B0CDF800E00B4D89
:1018A00000F20C010C6800F208010B68011D0A68C7
:1018B0000168084691B29AB2A3B220B4FFF788FA41
:1018C00001B00020DDF800E001B0704760280000A2
:1018D00081B0CDF800E0A9E0012905D140F2200156
:1018E0006548FFF735FB04E040F220016248FFF74E
:1018F00061FABBE0012905D140F208015F48FFF71A
:1019000027FB04E040F208015C48FFF753FAADE022
:10191000012905D144F200015948FFF719FB04E001
:1019200044F200015648FFF745FA9FE0012905D12E
:1019300040F200415148FFF70BFB04E040F2004148
:101940004E48FFF737FA91E0012905D140F6000132
:101950004A48FFF7FDFA04E040F600014748FFF768
:1019600029FA83E0012905D141F200014348FFF73C
:10197000EFFA04E041F200014048FFF71BFA75E07E
:10198000012905D141F200013D48FFF7E1FA04E0E9
:1019900041F200013A48FFF70DFA67E0012905D14D
:1019A00040F600013648FFF7D3FA04E040F60001A4
:1019B0003348FFF7FFF959E0012905D140F2400112
:1019C0002F48FFF7C5FA04E040F240012C48FFF72A
:1019D000F1F94BE0012905D140F220012848FFF739
:1019E000B7FA04E040F220012548FFF7E3F93DE0B3
:1019F000012905D140F240012248FFF7A9FA04E08D
:101A000040F240011F48FFF7D5F92FE0012905D129
:101A100040F280011B48FFF79BFA04E040F280018E
:101A20001848FFF7C7F921E0012020E000283FF423
:101A300053AF01283FF45EAF02283FF469AF03289B
:101A40003FF474AF04283FF47FAF05283FF48AAF1A
:101A500006283FF495AF0728A0D00828ACD0092865
:101A6000B8D00A28C4D00B28D0D0DDE70020DDF89C
:101A700000E001B0704700BF0008014000100140C5
:101A800000140140000C014081B0CDF800E0017865
:101A9000CCB2A0B2034C2468A0470020DDF800E0DF
:101AA00001B070479001002081B0CDF800E00B4DEF
:101AB00000F20C010C6800F208010B68011D0A68B5
:101AC0000168084691B29AB2A3B220B4FFF76CFA4B
:101AD00001B00020DDF800E001B0704738290000B7
:101AE00001490860704700BFAC012242014908600B
:101AF000704700BFB881224201490860704700BFAB
:101B0000A801224201490860704700BF94012142A8
:101B100001490860704700BF8C01224201490860FA
:101B2000704700BFB081224201490860704700BF82
:101B3000B081224201490860704700BFAC012242D7
:101B400001490860704700BFB001224201490860A6
:101B5000704700BF8001214201490860704700BF03
:101B6000A881224201490860704700BFA481224237
:101B700001490860704700BFA08122420149086006
:101B8000704700BF9C81214201490860704700BF37
:101B90009881214201490860704700BFB00122428C
:101BA00081B0CDF800E011E00846FFF73DFE16E0F9
:101BB0000846FFF755FE12E00846FFF7FDFD0EE070
:101BC0000846FFF715FE0AE0012008E00028EBD0E8
:101BD0000128EDD02028EFD03028F1D0F4E7DDF84F
:101BE00000E001B07047FFFF81B0CDF800E00E4685
:101BF000002183B2002805DA0121404280B280B280
:101C00008FB201E098B28FB23146FFF755FA062144
:101C10003446B8B2002908D963184A1E92B2A218F5
:101C200012781A70491E89B2F4E72022227070B12E
:101C3000002081B2204642181278202A02D1491C85
:101C400089B2F8E74A1E92B283182D221A70DDF885
:101C500000E001B07047FFFF81B0CDF800E009E07F
:101C60000846FFF719FE0AE00846FFF71DFF06E0E9
:101C7000012004E00028F3D00128F5D0F8E7DDF8D2
:101C800000E001B07047FFFF81B0CDF800E05FFADF
:101C900081F95FFA82FA0FE05FFA8AF15FFA89F060
:101CA000FFF75AFC0DE05FFA8AF15FFA89F0FFF75F
:101CB0000FFE06E0012004E00028EDD00128F2D05C
:101CC000F8E7DDF800E001B07047FFFF88B0CDF81D
:101CD00000E0049005910DF1040B0BF10A0ADFF806
:101CE000B0C100F02DFB049C049A521C2C2109B2B7
:101CF0001046FFF74BFB031B01AA214610469AB280
:101D0000FEF7FEFB059A079201AA1046FFF752FA6A
:101D1000FFF72CFA80B2079A108001AA002109B2BD
:101D200010460A22FFF702FC2C2109B20498FFF7A3
:101D30002DFB0546421C2C2109B21046FFF726FB5D
:101D40008346AC1C031B01AA214610469AB2FEF73B
:101D5000D7FB059A921C079201AA1046FFF72AFAB0
:101D6000FFF704FA80B2079A108001AA002109B295
:101D700010460A22FFF7DAFB5D460BF101022C2127
:101D800009B21046FFF702FB8346AC1C031B01AAF5
:101D9000214610469AB2FEF7B3FB059A121D079230
:101DA00001AA1046FFF706FAFFF7E0F980B2079A9A
:101DB000108001AA002109B210460A22FFF7B6FBE3
:101DC0005D460BF101022C2109B21046FFF7DEFA45
:101DD0008346AC1C031B01AA214610469AB2FEF7AB
:101DE0008FFB059A921D079201AA1046FFF7E2F9B0
:101DF000FFF7BCF980B2079A108001AA002109B24E
:101E000010460A22FFF792FB5D460BF101022C21DE
:101E100009B21046FFF7BAFA8346AC1C031B01AAAD
:101E2000214610469AB2FEF76BFB059A08320792DC
:101E300001AA1046FFF7BEF9FFF798F980B2079A9A
:101E4000108001AA002109B210460A22FFF76EFB9A
:101E50005D460BF101024F2109B21046FFF796FAD9
:101E6000AC1C031B01AA214610469AB2FEF748FBA0
:101E7000059A0A32079201AA1046FFF79BF9FFF76D
:101E800075F980B2079A1080DDF800E008B070475D
:101E9000442A000081B0CDF800E003460846FFF771
:101EA0004FFC1846FFF760FCDDF800E001B070471A
:101EB00081B0CDF800E0012149B20E480160002157
:101EC00049B20D48016001210C48016048F69F416C
:101ED0000B48016040F22C0000F026F9012149B2C4
:101EE000084801600448016000F05AF9DDF800E09C
:101EF00001B07047800342420000004228000040C9
:101F00002C0000408001004281B0CDF800E00023A9
:101F1000244A13700023244A13700023234A1370A9
:101F20000023234A1370234A1060234A1160234A76
:101F30001046FFF7EDFB224A10600023214A138070
:101F40000123214A13800023204A13800023204AC2
:101F500013700023164A13700023144A13700123D0
:101F6000104A13700023124A137000230F4A137093
:101F700000230C4A13700023164A13600123164AEB
:101F800013700023144A13700023144A13600123B2
:101F9000134A13700023124A1370DDF800E001B0F9
:101FA000704700BF1D010020BD0200208F010020EE
:101FB0008E010020E0030020DC030020F50000205B
:101FC000D8030020D4030020D0030020C402002046
:101FD000C6020020B8020020BC020020D405002068
:101FE000BE02002082B0CDF800E0019001991A48AD
:101FF000FFF7E2F91949097811B1FFF7F5F9F9E7A7
:1020000017490198FEF7F6FD0D210198FFF7A2F997
:102010000021012907D0042212490A7012490E48F2
:102020000F4C2468A047002210490A700022104972
:102030000A70012209490A7000220E490A60012231
:102040000D490A700549097811B1FFF7CDF9F9E793
:10205000DDF800E002B07047AC0100201D01002057
:10206000AC020020B6020020B40200208E01002045
:102070008F010020B8020020BC02002081B0CDF802
:1020800000E001200B4C2468A047FFF751F8002026
:10209000084C2468A047FFF74BF80120054C246842
:1020A000A047FEF7FDFFFEF7FBFFDDF800E001B003
:1020B000704700BFC002002083B0CDF800E00246A8
:1020C00010460D228DF808200A228DF809201FE005
:1020D000FFF7DAFC23E002782AB10190FFF7D4FC85
:1020E0000198401CF7E71AE002782AB10190FFF747
:1020F000CBFC0198401CF7E702AA1046FFF7C4FC8E
:102100000DF109021046FFF7BFFC08E0062007E0CA
:102110000029DDD00129DED00229E5D0F6E7002034
:10212000DDF800E003B0704781B0042806D11949FA
:10213000096841F4803217490A6028E0052806D171
:102140001449096841F4003212490A601FE0062868
:1021500006D11049096841F480220E490A6016E050
:102160000F2806D10C49096841F002020A490A60A9
:102170000DE010280BD3A0F2100461098A00074972
:102180008B1804F01F024FF001019140196001B05B
:10219000704700BF24ED00E010E000E000E100E047
:1021A00081B0EFF3108C604662B601B07047FFFF5C
:1021B00081B01548006840F00101134801601349DF
:1021C0001348016010480168124801400E48016040
:1021D0000D4801686FF4802001400B4801600C48F5
:1021E00001686FF4FE00014009480160064801687B
:1021F0006FF0A0500140044801604FF00001064814
:10220000016001B0704700BF001002400000FFF005
:1022100004100240FFFFF6FE2C1002400022184975
:102220000A70002217490A70012217490A70002219
:1022300016490A60012216490A7018B91549098819
:1022400001B909E013490A8813498918087011492E
:1022500009884A1C0F490A800E490A880F498A4298
:1022600002D301220E490A700A490988B1F1FF0F11
:1022700004D1084909884A1E06490A80704700BFF0
:102280008E0100208F0100201D010020D4050020B8
:10229000BE020020C4020020C6020020C0000000D0
:1022A000BD0200201C480078C8B11C4802681B48C9
:1022B0000068411C194801601948006882420ED923
:1022C000002115480170002114480160154801885B
:1022D0001548411800200870012114480170144865
:1022E0000078C0B11348026812480068411C1148C8
:1022F0000160114882420ED900210D480170002171
:102300000C48016007480188074841180020087000
:1023100001210A4801707047BC020020B802002069
:10232000B0020020C4020020C60200208E0100205E
:10233000BE020020D4050020050000008F0100200F
:1023400081B01CF8019B0BF8019BBBEB0A0FF8D185
:1023500001B07047FFFFFFFF81B0CDF800E0FFF74D
:10236000A7FD1C491C48FFF795FD012149B21B48F8
:10237000016040F23700FFF7D7FEFFF711FF40F290
:10238000DC511748FFF7C0FDFFF778FE48F67F578E
:10239000C0F25B0700BF00BF7F1EFDD100BF00BFC2
:1023A00000BF1048FFF71EFE0F48FFF71BFE0F4847
:1023B000FFF718FE41F6FF27C0F2B70700BF00BFC6
:1023C0007F1EFDD100BF00BF00BFDDF800E001B0FF
:1023D000704700BF382A0000A42900009401094278
:1023E0000911000016000020190000202200002022
:1023F00081B0CDF800E0012207210020FFF744FC66
:10240000002201210020FFF73FFC0948014600207F
:10241000FFF722FC4FF4E1312020FFF7C1FB054814
:102420000221FFF749FEDDF800E001B0704700BF70
:10243000182A00000000002081B04FF000094FF082
:10244000000CBDEB0A0F04DCBDEB0B0F01DBD44627
:10245000EA464BF8049BBBEB0A0FFAD1BCEB0A0F20
:1024600005DDE246D9F800B00BF1040BF1E701B04D
:102470007047FFFF81B0CDF800E0FEF7B5FF2F48B1
:10248000FFF7B0FD2E492F48FFF720FC2C480088AD
:102490002D49FFF7A9FB2D480121FFF70DFE022171
:1024A0002948FFF709FE2A4800882749FFF79CFBC7
:1024B00028480121FFF700FE02212348FFF7FCFD19
:1024C000254800882049FFF78FFB24480121FFF7AA
:1024D000F3FD02211C48FFF7EFFD214800881A494F
:1024E000FFF782FB1F480121FFF7E6FD0221164896
:1024F000FFF7E2FD1C4800881349FFF775FB1B48F6
:102500000121FFF7D9FD02210F48FFF7D5FD18483B
:1025100000880D49FFF768FB16480121FFF7CCFD45
:1025200002210948FFF7C8FD13480221FFF7C4FD47
:10253000FEF7B6FDDDF800E001B070472C0000208A
:102540001E010020330000202A01002097000020F7
:1025500020010020A300002022010020AF00002065
:1025600024010020BB00002026010020C70000201D
:1025700028010020D3000020DF00002081B0CDF82A
:1025800000E00549086818B104480068FFF746FEF6
:10259000DDF800E001B07047140009420448004033
:1025A00081B0CDF800E0FFF77DFE002149B203487D
:1025B0000160DDF800E001B0704700BF000200429A
:1025C00081B0CDF800E0464A464B474C47494BF6B0
:1025D0008030814206D94648006840F002014448F4
:1025E000016011E045F6C050814206D940480068BC
:1025F00040F001013E48016006E03D4801686FF08F
:10260000070001403A480160FFF7D2FD39480360F6
:1026100039480460394802EA00013948016002F093
:10262000010040B119463648006800F00200002859
:1026300000D1F8E700E0194602F4803040B10B46C3
:102640002F48006800F40030002800D1F8E700E0CF
:102650000B4602F0805068B12948006840F0805174
:10266000274801602648006800F00050002800D18B
:10267000F8E7FFE702F0806078B12148006840F099
:1026800080611F48016011461A461D48006800F02D
:102690000060002800D1F8E701E011461A4601F079
:1026A000807070B11648006840F080711448016075
:1026B00011461348006800F0007000B9F9E70A46B7
:1026C000FFE70C48006800F00C01900000F00C00DF
:1026D000814200D0F5E7DDF800E001B0704700BFAF
:1026E0008100010502841D0044060100401901001B
:1026F00000200240041002402C100240FFFF0F0097
:1027000000100240FFF75CFF00F0E2F900F00EF865
:1027100000F09EF9FFF76CFEFFF71EFEFFF7AAFE22
:10272000FCE7FEE781B0FEE701B0704781B00249E7
:102730000248016001B07047401901009401002077
:10274000202D2D2D2053797374656D20696E697469
:10275000202D2D2D200041540041544741494E3D2C
:10276000320041545443534D443D3200415444419E
:1027700054410000000000000000000000000000C4
:102780000000000000000000000000000000000049
:102790000000000000000000000000000000000039
:1027A0000000000000000000000000000000000029
:1027B0000000000000000000000000000000000019
:1027C0000000000000000000000000000000000009
:1027D000000000000000002D2D20522076616C7555
:1027E000653A002D2D20532076616C75653A002DD9
:1027F0002D20542076616C75653A002D2D205520D2
:1028000076616C75653A002D2D20562076616C75C9
:10281000653A002D2D20572076616C75653A002DA4
:102820002D2D2D2D2D2D2D2D2D2D2D2D2D2D2D2DD8
:102830002D2D2D2D00000000002B00002300002472
:102840000000255C002600000000000000003D3F65
:10285000003F00003D00003A00000D0000FFFFFFB8
:102860003800000039000000FFFFFFFF00000000FB
:102870000000000000000000000000000000000058
:102880000000000000000000000000000000000048
:102890000000000018080000180000000000000000
:1028A0000000000000000000000000000000000028
:1028B0000000000000000000000000000000000018
:1028C00000000000000000003000140809000000B3
:1028D0000A000000FFFFFFFF0000000000000000F2
:1028E00000000000000000000000000000000000E8
:1028F00000000000000000000000000000000000D8
:10290000180800001800000000000000000000008F
:1029100000000000000000000000000000000000B7
:1029200000000000000000000000000000000000A7
:102930000000000004000000350000003600000028
:10294000FFFFFFFF0000000000000000000000008B
:102950000000000000000000000000000000000077
:102960000000000000000000000000001808000047
:10297000180000000000000000000000000000003F
:102980000000000000000000000000000000000047
:102990000000000000000000000000000000000037
:1029A00008000008A1170000AD17000089170000FB
:1029B00095170000E11A0000951B00004D1B000058
:1029C000591B0000651B0000711B0000891B0000E3
:1029D0007D1B0000FFFFFFFFFFFFFFFFFFFFFFFF6B
:1029E000FFFFFFFFFFFFFFFFFFFFFFFFFFFFFFFFF7
:1029F000FFFFFFFFFFFFFFFFFFFFFFFFFFFFFFFFE7
:102A0000FFFFFFFF000000000000000000000000CA
:102A10000000000000FFFFFF00C2010000000000F6
:102A2000000000000000000000000000010203049C
:102A300001020304060708090910000099090000B3
:102A40006909000000000000000000000000FFFF16
:102A500000B5DFF814B0DFF814A0DFF814C0FFF7FA
:102A60006FFC00BD704700BF000000201D0100206A
:102A700040270000FFFFFFFFFFFFFFFFFFFFFFFFFB
:102A8000FFFFFFFFFFFFFFFFFFFFFFFFFFFFFFFF56
:102A9000FFFFFFFFFFFFFFFFFFFFFFFFFFFFFFFF46
:102AA000FFFFFFFFFFFFFFFFFFFFFFFFFFFFFFFF36
:102AB000FFFFFFFFFFFFFFFFFFFFFFFFFFFFFFFF26
:102AC000FFFFFFFFFFFFFFFFFFFFFFFFFFFFFFFF16
:102AD00000B5DFF810B0DFF810A0FFF7ADFC00BDC7
:102AE000704700BF00000020DC050020FFFFFFFF53
:00000001FF
