:10000000FCFF0220F92C00001D2D00001D2D00001A
:100010001D2D00001D2D00001D2D00001D2D0000B8
:100020001D2D00001D2D00001D2D00001D2D0000A8
:100030001D2D00001D2D00001D2D00001D2D000098
:100040001D2D00001D2D00001D2D00001D2D000088
:100050001D2D00001D2D00001D2D00001D2D000078
:100060001D2D00001D2D00001D2D00001D2D000068
:100070001D2D00001D2D00001D2D00001D2D000058
:100080001D2D00001D2D00001D2D00001D2D000048
:100090001D2D00001D2D00001D2D00001D2D000038
:1000A0001D2D00001D2D00001D2D00001D2D000028
:1000B0001D2D00001D2D00001D2D00001D2D000018
:1000C0001D2D00001D2D00001D2D000055270000D6
:1000D0001D2D00001D2D00001D2D00001D2D0000F8
:1000E0001D2D00001D2D00001D2D00001D2D0000E8
:1000F0001D2D00001D2D00001D2D00001D2D0000D8
:10010000812700001D2D00001D2D00001D2D000069
:100110001D2D00001D2D00001D2D00001D2D0000B7
:100120001D2D00001D2D00001D2D00001D2D0000A7
:100130001D2D00001D2D00001D2D00001D2D000097
:100140001D2D00001D2D00001D2D00001D2D000087
:100150001D2D00001D2D00001D2D00001D2D000077
:100160001D2D00001D2D00001D2D00001D2D000067
:100170001D2D00001D2D00001D2D00001D2D000057
:100180001D2D00001D2D00001D2D00001D2D000047
:080190001D2D00001D2D0000D3
:102CF800FFF768FDFFF750FD00F0DAF900F00EF875
:102D080000F096F9FFF7FEFCFFF70CFCFFF758FC04
:042D1800FCE7FEE7EF
:1023F40081B01CF8019B0BF8019BBBEB0A0FF8D1D1
:0424040001B070476C
:1026D00081B04FF000094FF0000CBDEB0A0F04DC95
:1026E000BDEB0B0F01DBD446EA464BF8049BBBEB7A
:1026F0000A0FFAD1BCEB0A0F05DDE246D9F800B0AB
:0A2700000BF1040BF1E701B0704784
:10270C0081B0CDF800E0012207210020FFF754FC36
:10271C00002201210020FFF74FFC09480146002050
:10272C00FFF72CFC4FF4E1310120FFF7F5FD0548D4
:10273C000221FFF7B9FDDDF800E001B0704700BFE2
:08274C00103000000000FF1F27
:101FC40081B0CDF800E05FFA81F85FFA82F916E09B
:101FD4005FFA89F15FFA88F0FFF7DEFA16E05FFA3C
:101FE40089F15FFA88F0FFF7EDFB0FE05FFA89F102
:101FF4005FFA88F0FFF752FD08E0012006E00028B0
:10200400E6D00128EBD00228F0D0F6E7DDF800E0B6
:0420140001B0704760
:10159C0081B0CDF800E0A9E0012905D14FF004019C
:1015AC006548FFF713FC04E04FF004016348FFF7B4
:1015BC0023FCBBE0012905D14FF400615E48FFF725
:1015CC0005FC04E04FF400615C48FFF715FCADE04E
:1015DC00012905D14FF010015948FFF7F7FB04E042
:1015EC004FF010015748FFF707FC9FE0012905D188
:1015FC004FF020015248FFF7E9FB04E04FF02001C7
:10160C005048FFF7F9FB91E0012905D14FF080011B
:10161C004B48FFF7DBFB04E04FF080014948FFF734
:10162C00EBFB83E0012905D14FF040014448FFF763
:10163C00CDFB04E04FF040014248FFF7DDFB75E0C5
:10164C00012905D14FF480613F48FFF7BFFB04E04F
:10165C004FF480613D48FFF7CFFB67E0012905D1CE
:10166C004FF400513448FFF7B1FB04E04FF4005144
:10167C003248FFF7C1FB59E0012905D14FF00401B5
:10168C003348FFF7A3FB04E04FF004013148FFF7A8
:10169C00B3FB4BE0012905D14FF008012C48FFF7B3
:1016AC0095FB04E04FF008012A48FFF7A5FB3DE04D
:1016BC00012905D14FF480712548FFF787FB04E021
:1016CC004FF480712348FFF797FB2FE0012905D1D8
:1016DC004FF400711E48FFF779FB04E04FF40071E2
:1016EC001C48FFF789FB21E0012020E000283FF493
:1016FC0053AF01283FF45EAF02283FF469AF0328D3
:10170C003FF474AF04283FF47FAF05283FF48AAF51
:10171C0006283FF495AF0728A0D00828ACD009289C
:10172C00B8D00A28C4D00B28D0D0DDE70020DDF8D3
:10173C0000E001B0704700BF50F00F4040F00F4088
:10174C0090F00F4080F00F4010F00F4000F00F4071
:08175C00D0F00F40C0F00F4077
:100DD80081B0CDF800E0034AFFF7AAFEDDF800E095
:080DE80001B070470401020094
:100B380081B0CDF800E0FFF727FEDDF800E001B056
:020B48007047F4
:1007900083B0CDF800E006460C4615463046FFF71C
:1007A0003DFE40F2FF1306EA0300800900262246C0
:1007B0002946202E39D24FF0010303FA06F402EA4B
:1007C00004031F46A3422ED104031A4B1C19B30085
:1007D000E51801952C68184B04EA03032B60174BAE
:1007E00001EA0304019B1B6843EA0404019B1C60AB
:1007F00001F48033B3F5803F15D08401104B1B19F1
:100800001433029301F400333BB1FC43029B1B6899
:1008100003EA0404029B1C6005E0029B1B6843EA98
:100820000704029B1C60761CC3E7DDF800E003B000
:10083000704700BF009004400000FFFFFFFF000072
:0408400000F00F4075
:10041C0081B040F2FF1100EA01018909084600F29F
:10042C0009024FF0010101FA02F20449096841EA9C
:10043C00020202490A6001B0704700BF38800440D4
:100E040081B0CDF800E0034AFFF794FEDDF800E07E
:080E140001B070470401040065
:1017C80081B0CDF800E0A9E0012905D14FF008016A
:1017D8006548FFF7FDFA04E04FF008016348FFF79A
:1017E8000DFBBBE0012905D14FF400215E48FFF74E
:1017F800EFFA04E04FF400215C48FFF7FFFAADE090
:10180800012905D14FF008015948FFF7E1FA04E032
:101818004FF008015748FFF7F1FA9FE0012905D179
:101828004FF020015248FFF7D3FA04E04FF02001AF
:101838005048FFF7E3FA91E0012905D14FF0800104
:101848004B48FFF7C5FA04E04FF080014948FFF71D
:10185800D5FA83E0012905D14FF040014448FFF74C
:10186800B7FA04E04FF040014248FFF7C7FA75E0C5
:10187800012905D14FF400613F48FFF7A9FA04E0B8
:101888004FF400613D48FFF7B9FA67E0012905D137
:101898004FF480713448FFF79BFA04E04FF48071ED
:1018A8003248FFF7ABFA59E0012905D14FF48031EE
:1018B8002F48FFF78DFA04E04FF480312D48FFF7E9
:1018C8009DFA4BE0012905D14FF400312848FFF774
:1018D8007FFA04E04FF400312648FFF78FFA3DE025
:1018E800012905D14FF480712548FFF771FA04E00A
:1018F8004FF480712348FFF781FA2FE0012905D1C1
:101908004FF400711E48FFF763FA04E04FF40071CA
:101918001C48FFF773FA21E0012020E000283FF47B
:1019280053AF01283FF45EAF02283FF469AF0328A4
:101938003FF474AF04283FF47FAF05283FF48AAF23
:1019480006283FF495AF0728A0D00828ACD009286E
:10195800B8D00A28C4D00B28D0D0DDE70020DDF8A5
:1019680000E001B0704700BF50F00F4040F00F405A
:1019780090F00F4080F00F4010F00F4000F00F4043
:08198800D0F00F40C0F00F4049
:101AA00081B0CDF800E0A9E0012905D14FF0400157
:101AB0006548FFF791F904E04FF040016348FFF7F4
:101AC000A1F9BBE0012905D14FF480615E48FFF721
:101AD00083F904E04FF480615C48FFF793F9ADE0CF
:101AE000012905D14FF004015948FFF775F904E0C9
:101AF0004FF004015748FFF785F99FE0012905D110
:101B00004FF020015248FFF767F904E04FF0200141
:101B10005048FFF777F991E0012905D14FF0800196
:101B20004B48FFF759F904E04FF080014948FFF7AF
:101B300069F983E0012905D14FF040014448FFF7DE
:101B40004BF904E04FF040014248FFF75BF975E0C4
:101B5000012905D14FF010013F48FFF73DF904E09E
:101B60004FF010013D48FFF74DF967E0012905D11D
:101B70004FF080013448FFF72FF904E04FF0800167
:101B80003248FFF73FF959E0012905D14FF4803180
:101B90002F48FFF721F904E04FF480312D48FFF77B
:101BA00031F94BE0012905D14FF400312848FFF706
:101BB00013F904E04FF400312648FFF723F93DE024
:101BC000012905D14FF480712548FFF705F904E09C
:101BD0004FF480712348FFF715F92FE0012905D153
:101BE0004FF400711E48FFF7F7F804E04FF400715E
:101BF0001C48FFF707F921E0012020E000283FF40E
:101C000053AF01283FF45EAF02283FF469AF0328C9
:101C10003FF474AF04283FF47FAF05283FF48AAF48
:101C200006283FF495AF0728A0D00828ACD0092893
:101C3000B8D00A28C4D00B28D0D0DDE70020DDF8CA
:101C400000E001B0704700BF50F00F4040F00F407F
:101C500090F00F4080F00F4010F00F4000F00F4068
:081C6000D0F00F40C0F00F406E
:101F880081B0CDF800E00DE00846FFF765FD10E0F0
:101F98000846FFF765FE0CE00846FFF719FD08E064
:101FA800012006E00028EFD00128F1D00228F3D064
:0A1FB800F6E7DDF800E001B0704725
:101A600081B0CDF800E00D4D00F20C0109688CB298
:101A700000F2080109688BB2011D09688AB2016889
:101A8000084691B29AB2A3B220B4FFF769F901B047
:101A90000020DDF800E001B0704700BF582E0000C4
:100D600081B0CDF800E09FB203468DB296B2DDF8B7
:100D700004800848FFF71AFF4446AAB21946B3B2E6
:100D8000044810B480B4FFF7E1FE02B0DDF800E0E3
:080D900001B0704700C00640ED
:100BAC0081B0304988420CD12F4A30490A60304A12
:100BBC0030490A60304A31490A60314A31490A6089
:100BCC004EE0314988420CD1304A28490A60304AFB
:100BDC0028490A602F4A29490A602F4A29490A6084
:100BEC003EE02E4988420CD12D4A20490A602D4AFC
:100BFC0020490A602C4A21490A602C4A21490A6082
:100C0C002EE02B4988420CD12A4A18490A602A4AFC
:100C1C0018490A60294A19490A60294A19490A607F
:100C2C001EE0284988420CD1274A10490A60274AFD
:100C3C0010490A60264A11490A60264A11490A607D
:100C4C000EE0254988420BD1244A08490A60244AFF
:100C5C0008490A60234A09490A60234A09490A607B
:100C6C0001B0704700A006400D0F00009801FF1F57
:100C7C00490900009C01FF1F61090000A001FF1F32
:100C8C0079090000A401FF1F00B00640DD0F000031
:100C9C0001090000190900003109000000C00640DC
:100CAC0085100000D9090000F1090000090A0000B4
:100CBC0000D006403110000091090000A909000085
:100CCC00C109000000A00E4015100000990800009A
:100CDC00D1080000E908000000B00E40F90F000038
:0C0CEC0069080000810800002D0D0000C8
:100B4C0085B0CDF800E001900291ADF80C20ADF825
:100B5C001030BDF81440ADF814400698FFF7C8FDEE
:100B6C000198FFF731FD02990198FFF777FDBDF869
:100B7C000C100198FFF7ACFDBDF810100198FFF7B1
:100B8C0007FDBDF814100198FFF7C6FC0198FFF79C
:100B9C00C9FC0198FFF7D2FDDDF800E005B0704705
:1006FC0081B0CDF800E040F2000C83464FEA8C014B
:10070C000BEB01010968B1F1FF3F12D00BF1340181
:10071C004FEA8C03C91809680A460BEB03010968F8
:10072C0008461146FFF78CFE0CF1010C1FFA8CFCED
:0A073C00E4E7DDF800E001B07047CB
:10044C0082B0CDF800E080464FEA581202F0070265
:10045C00914608F01F04A24693010D4AD3184FF0A1
:10046C000102A240019218460A46019900F05EFB77
:10047C004FEA0933074AD3184FEA8A029C1808F44A
:10048C00E06322681A432260DDF800E002B0704796
:08049C0000F00F400090044045
:1005D40081B01849884204D1012252B216490A60F6
:1005E40026E01649884204D1012252B214490A6015
:1005F4001EE01449884204D1012252B212490A6011
:1006040016E01249884204D1012252B210490A600C
:100614000EE01049884204D1012252B20E490A6008
:1006240006E00E49884203D1012252B20C490A6005
:1006340001B0704700A00640A806904200B00640F2
:10064400AC06904200C00640B006904200D006407E
:10065400B406904200A00E402805904200B00E401F
:040664002C0590428F
:1006680085B0CDF800E08046894601AA1046FFF71C
:1006780015FF164A904503D0154A904500D001E071
:10068800019800E002984FEA0912B0FBF2F291B229
:1006980092B2130A9BB298F800201A4388F80020F7
:1006A80008F10103CAB21A7043014FEA0912B3FBF9
:1006B800F2F34A0192B29A1AD0B208F10A031A78F0
:1006C80002431A70DDF800E005B0704700A006404C
:0406D80000B0064028
:1004A40081B0CDF800E00446FFF7B0FF40F2E83138
:1004B40000FB01F3194909680A0F1849096801F09A
:1004C4007061090EC8B21549096801F47001090D7B
:1004D400CDB21249096801F47021090CCEB2D1B22F
:1004E400491C09B259430F462360221D411C09B21D
:1004F400B7FBF1F1116004F20802691C09B2B7FB01
:10050400F1F1116004F20C02711C09B2B7FBF1F1B4
:100514001160DDF800E001B0704700BF4480044082
:0C04100001480068704700BF9401FF1F06
:1006DC0081B0841C23784FF6EF7212B203EA020247
:1006EC002270841C0B0122781A43227001B07047CF
:10059C0081B001F0020262B1841C01F002032278E6
:1005AC001A432270841C01F0010322781A43227032
:1005BC0007E0841C23784FF6FD7212B203EA0202A4
:0605CC00227001B070472F
:0C05240081B002780A43027001B07047F9
:1005300081B0C21C117841F00401117001B0704704
:1007480081B0C21C117841F00801117001B07047E6
:101C680081B0CDF800E00D4D00F20C0109688CB28E
:101C780000F2080109688BB2011D09688AB201687F
:101C8800084691B29AB2A3B220B4FFF7DBF901B0CB
:101C98000020DDF800E001B0704700BF302F0000E1
:10104C0081B0CDF800E09FB203468DB296B2DDF8C8
:10105C0004800848FFF7A4FD4446AAB21946B3B26F
:10106C00044810B480B4FFF76BFD02B0DDF800E06B
:08107C0001B0704700D00640EE
:1019D80081B0CDF800E00D4D00F20C0109688CB221
:1019E80000F2080109688BB2011D09688AB2016812
:1019F800084691B29AB2A3B220B4FFF723FB01B014
:101A08000020DDF800E001B0704700BF302F000073
:1023240081B0CDF800E011E00846FFF773FB16E03A
:102334000846FFF72BFB12E00846FFF739FB0EE0D7
:102344000846FFF779FB0AE0012008E00028EBD0FB
:102354000128EDD00228EFD01028F1D0F4E7DDF801
:0623640000E001B070472B
:101A180081B0CDF800E0FFF783FA044A04490A6070
:101A28000020DDF800E001B0704700BF851000001D
:041A38009001FF1FFB
:100F280081B0CDF800E003460A48FFF73BFE0A4AC5
:100F380040F2000104B402B440F20002194640F243
:100F480000030448FFF7FEFD02B0DDF800E001B041
:0C0F5800704700BF00C00640582E00008B
:1019900081B0CDF800E0FFF7E5FA044A04490A6097
:1019A0000020DDF800E001B0704700BF31100000FA
:0419B0009001FF1F84
:100F640081B0CDF800E003460A48FFF71DFE0A4AA7
:100F740040F2000104B402B440F20002194640F207
:100F840000030448FFF7E0FD02B0DDF800E001B023
:0C0F9400704700BF00D00640302F000066
:1019B40081B0CDF800E0FFF7D3FA044A04490A6085
:1019C4000020DDF800E001B0704700BF31100000D6
:0419D4009001FF1F60
:101A3C0081B0CDF800E0FFF7ADFA044A04490A6022
:101A4C000020DDF800E001B0704700BF0D0F000072
:041A5C009001FF1FD7
:100FA00081B0CDF800E003460A48FFF7FFFD0A4A8A
:100FB00040F2000104B402B440F20002194640F2CB
:100FC00000030448FFF7C2FD02B0DDF800E001B005
:0C0FD000704700BF00A00640C42E0000C7
:1022B40083B0CDF800E0024610460D228DF80820C8
:1022C4000A228DF809201FE0FFF7ECFC23E00278D6
:1022D4002AB10190FFF7E6FC0198401CF7E71AE0E9
:1022E40002782AB10190FFF7DDFC0198401CF7E762
:1022F40002AA1046FFF7D6FC0DF109021046FFF7BB
:10230400D1FC08E0062007E00029DDD00129DED059
:102314000229E5D0F6E70020DDF800E003B07047BD
:101CA80081B0CDF800E00178CCB2A0B2034C246832
:101CB800A0470020DDF800E001B070479001FF1F49
:100F0C0081B0CDF800E081B20348FFF7CBFCDDF8EF
:0C0F1C0000E001B0704700BF00A00640DC
:1008B00081B0ADF800100146BDF800000A1D1378A4
:1008C000C3F3C01202B9F9E7CA1D107001B0704736
:100FDC0081B0CDF800E081B20348FFF763FCDDF887
:0C0FEC0000E001B0704700BF00B00640FC
:1010840081B0CDF800E081B20348FFF70FFCDDF832
:0C10940000E001B0704700BF00C0064043
:1010300081B0CDF800E081B20348FFF739FCDDF85C
:0C10400000E001B0704700BF00D0064087
:1010140081B0CDF800E081B20348FFF747FCDDF86A
:0C10240000E001B0704700BF00A00E40CB
:100FF80081B0CDF800E081B20348FFF755FCDDF879
:0C10080000E001B0704700BF00B00E40D7
:10252C0081B0CDF800E0FFF7B7FD1D491D48FFF75E
:10253C00A5FD1D48007840F020011B48017040F2B9
:10254C003300FFF715FFFFF70BFF40F2DC51174884
:10255C00FFF7D2FDFFF78AFE42F6FE47C0F23117B5
:10256C0000BF00BF7F1EFDD100BF00BF00BF1048E1
:10257C00FFF730FE0F48FFF72DFE0F48FFF72AFE3E
:10258C0045F6FE17C0F2622700BF00BF7F1EFDD1CB
:10259C0000BF00BF00BFDDF800E001B0704700BF16
:1025AC00203000009C2F000003C00640A91300003F
:0C25BC001600FF1F1900FF1F2200FF1F68
:10237C0081B0042806D11949096841F48032174903
:10238C000A6028E0052806D11449096841F4003296
:10239C0012490A601FE0062806D11049096841F469
:1023AC0080220E490A6016E00F2806D10C490968F4
:1023BC0041F002020A490A600DE010280BD3A0F28A
:1023CC00100461098A0007498B1804F01F024FF0B2
:1023DC0001019140196001B0704700BF24ED00E08D
:0823EC0010E000E000E100E058
:0E236C0081B0EFF3108C604662B601B070478E
:1020A40081B0CDF800E01148006840F400010F4809
:1020B400016040F2400000F05FF900210C4801602B
:1020C4000C490D4801600D48006840F002010B48BE
:1020D40001600A48006840F001010848016000F00E
:1020E40043F9DDF800E001B0704700BF3C800440D4
:1020F40000700340BFD40100007103400871034025
:1020880081B0CDF800E003460846FFF767FB184625
:0C209800FFF758FADDF800E001B07047D7
:10176400026806490A60011D0A6805490A6000F218
:1017740008010A6803490A60704700BFBC04FF1FE0
:08178400D405FF1FD805FF1F6B
:10154C0000F230011C310A6803490A60011D0A6867
:10155C0002490A60704700BFC004FF1FC404FF1F8C
:1021040081B0CDF800E00023244A13700023244A50
:1021140013700023234A13700023234A1370234AA5
:102124001060234A1160234A1046FFF71DFA224A21
:1021340010600023214A13800123214A13800023C5
:10214400204A13800023204A13700023164A137078
:102154000023144A13700123104A13700023124AF7
:10216400137000230F4A137000230C4A13700023CA
:10217400164A13600123164A13700023144A13707D
:102184000023144A13600123134A13700023124AD4
:102194001370DDF800E001B0704700BF1D01FF1FA0
:1021A4008E01FF1F8F01FF1FA801FF1FBC01FF1F2E
:1021B400B801FF1FF500FF1FB401FF1FB001FF1F8F
:1021C400AC01FF1FB003FF1FB203FF1FB404FF1FC6
:0C21D400A901FF1FB804FF1FAA01FF1F94
:10156C0000214FF005040346C8B21A46591C0B461D
:10157C001178CAB24AB100F00701C9B202FA01F1FE
:0E158C0089B26418401CC0B2EFE720467047D9
:1022780081B0CDF800E001200B4C2468A047FFF79F
:1022880083F80020084C2468A047FFF77DF8012058
:10229800054C2468A047FFF76BF8FFF769F8DDF8ED
:0C22A80000E001B0704700BFC404FF1F3D
:0C178C0001490860704700BF0808FE43D8
:0C17B00001490860704700BF2C08FE4390
:0C17BC0001490860704700BF1010FE4398
:0C17980001490860704700BF1410FE43B8
:0C17A40001490860704700BF1C10FE43A4
:0C1CC80001490860704700BF1810FE437F
:0C1DA00001490860704700BF2800FE43A6
:0C1D7C0001490860704700BF3408FE43B6
:0C1D580001490860704700BF0818FE43F6
:0C1D640001490860704700BF0C18FE43E6
:0C1D700001490860704700BF2018FE43C6
:0C1D940001490860704700BF2418FE439E
:0C1D880001490860704700BF0C08FE43D2
:0C1D4C0001490860704700BF4C08FE43CE
:0C1CF80001490860704700BF0C10FE435B
:0C1D040001490860704700BF1410FE4346
:0C1CEC0001490860704700BF1C10FE4357
:0C1CD40001490860704700BF1810FE4373
:0C1CE00001490860704700BF2C00FE4363
:0C1D340001490860704700BF2008FE4312
:0C1D400001490860704700BF4010FE43DE
:0C1D280001490860704700BF4410FE43F2
:0C1D100001490860704700BF2018FE4326
:0C1D1C0001490860704700BF2418FE4316
:0C15400001490860704700BF1808FE4316
:0C10E80001490860704700BF2808FE4363
:0C10DC0001490860704700BF0810FE4387
:0C10F40001490860704700BF1410FE4363
:0C110C0001490860704700BF1C10FE4342
:0C11000001490860704700BF1810FE4352
:0C10D00001490860704700BF1000FE439B
:0C10A00001490860704700BF1C08FE43B7
:0C10C40001490860704700BF4010FE4367
:0C10B80001490860704700BF4410FE436F
:0C10AC0001490860704700BF2018FE4397
:0C11180001490860704700BF2418FE4326
:1013900040F6FE07C0F23D0700BF00BF7F1EFDD133
:0813A00000BF00BF00BF704751
:1013780045F6FE17C0F2622700BF00BF7F1EFDD1F1
:0813880000BF00BF00BF704769
:1021E00082B0CDF800E0019001991A48FFF790F90C
:1021F0001949097811B1FFF7E9F8F9E7174901988A
:10220000FEF71AFE0D210198FFF784F8002101293D
:1022100007D0042212490A7012490E480F4C246854
:10222000A047002210490A70002210490A700122BA
:1022300009490A7000220E490A6001220D490A70FC
:102240000549097811B1FFF7C1F8F9E7DDF800E0B9
:1022500002B07047D404FF1F1D01FF1FC804FF1FF9
:10226000D204FF1FD004FF1FA801FF1F8F01FF1F13
:08227000B404FF1FA901FF1FC8
:1013A80082B0CDF800E00190022100F07FFF0199A2
:1013B8000348FFF7EDFCDDF800E002B0704700BF1E
:0413C8003300FF1FD0
:100D980081B00091014600980B461C465A1C154626
:100DA8000346421C10461A78227022780AB12B4654
:080DB800F3E7084601B07047A3
:101510000A46014640F2000440F2000086B210463E
:10152000A3B2621C95B2CC18B3B2721C96B2C218A8
:0E1530001278227022780AB1ACB2F1E770474F
:1013CC0081B0CDF800E00020002804D0FFF7B4FC79
:1013DC0008B1FFF71DFD4048007800282DD00021F2
:1013EC003E48017000213E4801703E4800780228BA
:1013FC0005D13D493D483E4C2468A0470BE03C4993
:10140C003A48FFF713FD0221364801703649374838
:10141C00374C2468A04700212F4801700021354823
:10142C0001800021314801700021334801700021F6
:10143C003248017000213248017030480078002891
:10144C0020D0002125480170002125480170284931
:10145C002648FFF7EBFC0021224801702249234863
:10146C00234C2468A04700212248018000211F48FA
:10147C0001700021204801700021204801700021DA
:10148C001F4801701C480078002820D00021134808
:10149C00017000211248017015491448FFF7C6FC71
:1014AC0001211048017010491048114C2468A047C4
:1014BC0000211048018000210C48017000210E48C9
:1014CC00017000210D48017000210D480170DDF8FC
:1014DC0000E001B0704700BF8E01FF1FAA01FF1F83
:1014EC00A901FF1FD204FF1FD004FF1FB203FF1F6F
:1014FC00C804FF1FB003FF1FA801FF1F8F01FF1FB0
:04150C001D01FF1F9F
:100D440081B0CDF800E0044C2468A047C0B2DDF8BF
:0C0D540000E001B0704700BFD805FF1F91
:1009480081B0CDF800E00348FFF712FFDDF800E0C2
:0809580001B0704700A0064049
:1007780081B0011D0A78C2F3401101B9F9E7C11D22
:080788000978C8B201B0704706
:1009600081B0CDF800E00348FFF7FEFEDDF800E0BF
:0809700001B0704700A0064031
:0E07680081B0011D0978C1F3401001B0704747
:1009780081B0CDF800E00348FFF7EAFEDDF800E0BB
:0809880001B0704700A0064019
:0E07580081B0011D0978C1F3801001B0704717
:1009000081B0CDF800E00348FFF736FFDDF800E0E6
:0809100001B0704700B0064081
:1009180081B0CDF800E00348FFF722FFDDF800E0E2
:0809280001B0704700B0064069
:1009300081B0CDF800E00348FFF70EFFDDF800E0DE
:0809400001B0704700B0064051
:1009D80081B0CDF800E00348FFF7CAFEDDF800E07B
:0809E80001B0704700C0064099
:1009F00081B0CDF800E00348FFF7B6FEDDF800E077
:080A000001B0704700C0064080
:100A080081B0CDF800E00348FFF7A2FEDDF800E072
:080A180001B0704700C0064068
:1009900081B0CDF800E00348FFF7EEFEDDF800E09F
:0809A00001B0704700D00640D1
:1009A80081B0CDF800E00348FFF7DAFEDDF800E09B
:0809B80001B0704700D00640B9
:1009C00081B0CDF800E00348FFF7C6FEDDF800E097
:0809D00001B0704700D00640A1
:1008980081B0CDF800E00348FFF76AFFDDF800E01B
:0808A80001B0704700A00E40F2
:1008D00081B0CDF800E00348FFF746FFDDF800E007
:0808E00001B0704700A00E40BA
:1008E80081B0CDF800E00348FFF732FFDDF800E003
:0808F80001B0704700A00E40A2
:1008680081B0CDF800E00348FFF782FFDDF800E033
:0808780001B0704700B00E4012
:1008800081B0CDF800E00348FFF76EFFDDF800E02F
:0808900001B0704700B00E40FA
:100D2C0081B0CDF800E00348FFF710FDDDF800E0DE
:080D3C0001B0704700B00E4049
:100E1C0081B0CDF800E0044C2468A047C0B2DDF8E6
:0C0E2C0000E001B0704700BFD405FF1FBC
:100E380089B0CDF800E0069007910DF1040B0BF195
:100E4800110ADFF8B0C001F0D1FA002307222A49BD
:100E58000698FFF70DFE8DF820000123072226498A
:100E68000698FFF705FE8DF8210000230622234986
:100E78000698FFF7FDFD8DF82200012306221F4981
:100E88000698FFF7F5FDC1B208B9102000E0C8B216
:100E98009DF82120841A9DF82130069AD31801AABA
:100EA80019461046A2B2FFF723FF01AA1046FFF722
:100EB800B3FDC1B2C2B21301114AD2180C32136881
:100EC800079A1360079A141D0B010D4AD2180832AD
:100ED80012682260079A02F208039DF820201A700F
:100EE800079A0832531C9DF822201A70DDF800E09A
:100EF80009B07047FC2F0000F600FF1F0B01FF1F11
:040F0800B001FF1F16
:100A780085B0CDF800E0824602918DF80C208DF803
:100A880010305046FFF7DAFE8DF81100C4B2102C72
:100A980002D910248DF81140012751469DF80C40C9
:100AA800A7423FD2032404FB07F5029C6419019175
:100AB8002046FFF7C3FE0199C2B240F2000C8A46F5
:100AC800F9B25FFA8CFB5FFA82FC9DF81140A345EE
:100AD80023D20AEB0B06032404FB01F5029C6419DC
:100AE8008DF804105FFA8CF231462046FFF724FD9A
:100AF8009DF8041058B99DF810400CB9C8B212E01E
:100B08009DF81040012C02D15FFA8BF00BE00BF13D
:100B18000104E0B25FFA80FBD7E74C1CE5B251460E
:0E0B2800EFB2BBE70020DDF800E005B070473B
:10084400014640F2000340F2000082B20846C1189B
:10085400097821B15B1C9BB2521C92B2F7E790B2AB
:020864007047DB
:1005400093B20A46014640F2000440F200001FFA4E
:1005500080F810469AB2EAB10B191D78EEB2631C0E
:100560009FB200EB08031C785FFA84F908F10108D8
:100570001FFA88F8A54207D04E4502D2FF2040B2AC
:1005800001E0012040B207E006B903E0521E92B23A
:0A059000BCB2E0E7002040B2704763
:100CF80081B0044640F20000ADF8002082B20846F8
:100D0800BDF8001059B183181B782370237813B1EC
:100D1800521C92B2FFE7641C491E89B2F2E701B087
:020D2800704712
:100A200081B0CDF800E004462046FFF70BFFC5B2C9
:100A3000204600F09BFD0124EBB20D4909888C4251
:100A400011D222010B4989180988994208D1220143
:100A500008498918091D0968814201D1A0B203E043
:100A6000641CA4B2E9E70020DDF800E001B07047A3
:080A7000AC01FF1FB001FF1FE4
:1013140083B0CDF800E08DF8081002784AB1027865
:101324000190D0B2FFF74AFD0198421C11460846CD
:10133400F3E79DF80800FFF741FD0A20FFF73EFDA3
:08134400DDF800E003B0704782
:100DC00081B0CDF800E0034C2468A047DDF800E0D6
:080DD00001B07047BC04FF1FD5
:1025C80081B0CDF800E0FEF7FDFE2F48FFF704FECE
:1025D8002E492F48FFF7E6FB2C4800882D49FFF7C6
:1025E80017FD2D480121FFF761FE02212948FFF759
:1025F8005DFE2A4800882749FFF70AFD284801217F
:10260800FFF754FE02212348FFF750FE25480088B3
:102618002049FFF7FDFC24480121FFF747FE02216E
:102628001C48FFF743FE214800881A49FFF7F0FCD1
:102638001F480121FFF73AFE02211648FFF736FE30
:102648001C4800881349FFF7E3FC1B480121FFF7EA
:102658002DFE02210F48FFF729FE184800880D4972
:10266800FFF7D6FC16480121FFF720FE0221094892
:10267800FFF71CFE13480221FFF718FEFEF778FE4D
:10268800DDF800E001B070472C00FF1F1E01FF1F9E
:102698003300FF1F2A01FF1F9700FF1F2001FF1FA4
:1026A800A300FF1F2201FF1FAF00FF1F2401FF1F10
:1026B800BB00FF1F2601FF1FC700FF1F2801FF1FC8
:0826C800D300FF1FDF00FF1F1C
:101DAC0085B0CDF800E080460F460DF1040B0BF129
:101DBC000A0ADFF8C4C100F017FB444608F101021F
:101DCC002C2109B21046FFF7BBFA031B01AA2146CE
:101DDC0010469AB2FEF78AFF3A46049201AA1046C0
:101DEC00FFF7D2F9BCEE400A10EE103A9BB2049AFF
:101DFC00138001AA002109B210460A22FFF78CF9C0
:101E0C002C2109B24046FFF79BFA0546421C2C21B7
:101E1C0009B21046FFF794FA8046AC1C031B01AACA
:101E2C00214610469AB2FEF761FFBA1C049201AA31
:101E3C001046FFF7A9F9BCEE400A10EE103A9BB21F
:101E4C00049A138001AA002109B210460A22FFF756
:101E5C0063F9454608F101022C2109B21046FFF73F
:101E6C006FFA8046AC1C031B01AA214610469AB29D
:101E7C00FEF73CFF3A1D049201AA1046FFF784F9C5
:101E8C00BCEE400A10EE103A9BB2049A138001AAE1
:101E9C00002109B210460A22FFF73EF9454608F127
:101EAC0001022C2109B21046FFF74AFA8046AC1CFD
:101EBC00031B01AA214610469AB2FEF717FFBA1D62
:101ECC00049201AA1046FFF75FF9BCEE400A10EE2F
:101EDC00103A9BB2049A138001AA002109B2104651
:101EEC000A22FFF719F9454608F101022C2109B223
:101EFC001046FFF725FA8046AC1C031B01AA2146AD
:101F0C0010469AB2FEF7F2FE07F20802049201AAFA
:101F1C001046FFF739F9BCEE400A10EE103A9BB2AE
:101F2C00049A138001AA002109B210460A22FFF775
:101F3C00F3F8454608F101024F2109B21046FFF7AC
:101F4C00FFF9AC1C031B01AA214610469AB2FEF7FE
:101F5C00CDFE07F20A02049201AA1046FFF714F90B
:101F6C00BCEE400A10EE103A9BB2049A1380DDF8D6
:0C1F7C0000E005B0704700BF2C300000F2
:10134C0081B0ADF800100146BDF900000B78C2B2B7
:10135C00934207D00B46491C1A78002A01D1002071
:0A136C0001E0F3E7084601B0704706
:1011940083B0CDF800E04FF0000101EE101A40F2E8
:1011A40000031BB20246441C1178ADF80810BDF9C7
:1011B4000810A1B1BDF90800FFF718FE78B1B2EE2E
:1011C400040A61EE000ABDF90810303909B200EED4
:1011D400101AB8EEC00A30EE801A2046E2E7BDF9D4
:1011E40008102E2925D120460246441C1178ADF85A
:1011F4000810BDF90810C1B1BDF90800FFF7F6FDEC
:1012040098B1B2EE040A61EE000ABDF90810303953
:1012140009B200EE101AB8EEC00A30EE800AB0EE41
:10122400401A5B1E1BB22046DEE718B2B0EE410A3C
:1012340002E0B0EE410A18B2BDF90810652906D0E3
:10124400BDF90810452902D0F0EE400A45E040F20D
:1012540001031BB240F2000212B22178ADF808106B
:10126400641CBDF908102B2904D12178ADF80810AD
:10127400651C13E0BDF908102D290DD12178ADF8B6
:101284000810611C0B464FF6FF7109B2ADF804104B
:101294001946BDF9043000E021460D4604B216B2E9
:1012A400BDF90800FFF7A2FD80B10A2109B206FBCF
:1012B40001F212B2BDF90810303909B2511808B25E
:1012C4002978ADF808106D1C06B2E9E706FB03F1B6
:1012D40009B2601800B2F0EE400A002806DDB2EE52
:1012E400040A60EE800A401E00B2F6E7002807DA1E
:1012F400064900EE101A60EE800A401C00B2F5E7C1
:10130400B0EE600ADDF800E003B07047CDCCCC3D10
:100DF000302803D3392801D8012100E00021C8B2EE
:020E0000704739
:10112400D3B2024608B21146DDB2ECB26B1EDDB298
:0E1134001CB1C3B20B70491CF7E710467047A0
:1020180081B0CDF800E00E46002183B2002805DA31
:102028000121404280B280B28FB201E098B28FB2F3
:102038003146FFF783F806213446B8B2002908D99B
:1020480063184A1E92B2A21812781A70491E89B2F1
:10205800F4E72022227070B1002081B22046421895
:102068001278202A02D1491C89B2F8E74A1E92B296
:0E20780083182D221A70DDF800E001B07047C9
:1011440081B00A4681B200208DB21146052805D22D
:101154000B1820221A70401CC0B2F7E70B180022AB
:101164001A70401EC0B20C180A23B5FBF3F203FB3D
:10117400125292B2303222700A22B5FBF2F292B2CB
:1011840095B202B902E0401EC0B2ECE701B070476C
:1027CC0090B072B697480190974802909748039042
:1027DC00974804909748059097480690974807901B
:1027EC00974808909748099097480A9097480B90FB
:1027FC0097480C90974998480D9098480E900D98D2
:10280C0000F007000F9001F0010050B94CF220507D
:10281C00934908804DF62810088040F2D211914857
:10282C0001809148007800F0010050B18F48007889
:10283C0000F0080020B18D49087840F008000870BD
:10284C0021E08B48006840F00051894801608948BC
:10285C00006800F48070B0B9864801686FF470505D
:10286C0001EA000040F44071824801608148006830
:10287C0040F480717F4801607E4801686FF40070FD
:10288C0001407C480160AA217B4801700D9800F042
:10289C00100060B9794801786FF06000014077480A
:1028AC00017077480078012800D0FAE71CE00D98F9
:1028BC0000F01000C0B10E997248814208D9602115
:1028CC006E4801706E480078802800D0FAE70BE063
:1028DC006A4801786FF060000140684801706848F0
:1028EC000078012800D0FAE704996748016067482E
:1028FC0001686FF440200140029800F4402001432D
:10290C0062480160624801686FF4403001400398EE
:10291C0000F4403001435E4801600F9830B10F98CD
:10292C00012803D00F98022800D061E0019800F034
:10293C00800050B9089800F0400028B10B9800F0C6
:10294C000300002800D100E015E05248006840F474
:10295C0000715048016050480168504801404E4891
:10296C000160069800F0040028B14D4801684B48FE
:10297C0001404B4801600A994A48017005994A4840
:10298C000170059800F0040038B14848007800F058
:10299C001000002800D1F8E705E04448007800F06A
:1029AC00100000B1F9E74248007800F0BF01C9B24D
:1029BC00069800F0FD0001433D480170079800F0B7
:1029CC00E0013C48007800F01F00014339480170D9
:1029DC000199394801700B99384801700F980228F9
:1029EC0005D13348007840F0020131480170B8E05D
:1029FC00019800F0800020B90B9800F0030000B1A2
:102A0C0065E02448006840F40071224801602248C7
:102A1C0001682248014020480160069800F004003B
:102A2C0000F04EB80000000000000C000000010097
:102A3C00000014012200000024000000000000002F
:102A4C000200000046000000000000000000000032
:102A5C00000000000000000007000000C0D40100CE
:102A6C000E2005400020054000F0074002D0074032
:102A7C003C80044010D0034000E0074001E00740D8
:102A8C0003E007408038010044800440007004409B
:102A9C00048004403880044048900440FFF8FFFE56
:102AAC004C9004400840064000400640064006405A
:102ABC000140064003400640005006400C400640D2
:102ACC0028B17A4801687A480140784801600A992F
:102ADC00784801707848007800F0BF01C9B20698B8
:102AEC0000F0FD00014374480170019973480170B6
:102AFC000B99734801700F98072805D1059840F081
:102B0C0080017048017002E005996E4801700698CA
:102B1C0000F0040048B10B9800F0030028B96A4893
:102B2C00007800F0020000B9F9E7059800F0040005
:102B3C0038B16548007800F01000002800D1F8E7A3
:102B4C0005E06148007800F0100000B1F9E7079843
:102B5C0000F0E0015D48007800F01F0001435B4885
:102B6C000170089800F0BF0159480170099800F0F5
:102B7C00BF0158480170089800F0400028B1544833
:102B8C00007840F04001524801700F98052806D19A
:102B9C004948007840F00201474801701BE00F984B
:102BAC00062803D00F98072800D014E04948007875
:102BBC0040F04001474801704348007800F0400065
:102BCC0000B9F9E70F98072805D13E48007800F0C6
:102BDC003F013C4801700F9818B10F98032800D0A2
:102BEC002CE03948007800F00C0000B1F9E73A48C5
:102BFC00006840F00101384801604FF0000137488F
:102C0C0001604FF08001364801604FF005013548F6
:102C1C0001604FF00101324801603148006800F05A
:102C2C00800000B9F9E700212D4801602A480168AD
:102C3C006FF001000140284801602AE00F9801283C
:102C4C0003D00F98022800D007E01F48007800F04E
:102C5C000C00042800D0F8E71BE00F98042806D0DD
:102C6C000F98062803D00F98052800D007E01648C7
:102C7C00007800F00C00082800D0F8E709E00F9865
:102C8C00072806D11048007800F00C000C2800D062
:102C9C00F8E7154801686FF00F0001400C9800F040
:102CAC000F0001431048016010B070474C90044075
:102CBC00FFF8FFFE08400640014006400050064069
:102CCC000C400640004006400640064003400640CB
:102CDC00044006400540064038800440080004408B
:0C2CEC0000000440040004404880044044
:102D240081B002490248016001B07047C0D401007B
:042D34009401FF1FE8
:082D1C0081B0FEE701B0704731
:1027A00081B072B60849086840F47000086000BF44
:1027B00000BF00BF00BFF1EE100A40F44000E1EEA0
:0C27C000100A62B601B0704788ED00E01E
:1030380000B5DFF814B0DFF814A0DFF814C0FFF70C
:10304800D5F900BD704700BF0000FF1F1D01FF1F1D
:04305800382D00000F
:1030B80000B5DFF810B0DFF810A0FFF705FB00BD82
:0C30C800704700BF0000FF1FDC05FF1F69
:1027540081B0CDF800E00748007800F0200000B216
:1027640018B105480078FFF74DFEDDF800E001B030
:0C277400704700BF04C0064007C00640CC
:10240800002218490A70002217490A700122174948
:102418000A70002216490A60012216490A7018B982
:102428001549098801B909E013490A881349891827
:102438000870114909884A1C0F490A800E490A8800
:102448000F498A4202D301220E490A700A490988B3
:10245800B1F1FF0F04D1084909884A1E06490A80CC
:10246800704700BFA801FF1F8F01FF1F1D01FF1F3D
:10247800B804FF1FAA01FF1FB003FF1FB203FF1F0D
:08248800C00000008E01FF1FDF
:1027800081B0CDF800E0FFF783FE012149B2034894
:102790000160DDF800E001B0704700BF80216E42AB
:102490001C480078C8B11C4802681B480068411CF1
:1024A000194801601948006882420ED90021154878
:1024B0000170002114480160154801881548411831
:1024C0000020087001211448017014480078C0B140
:1024D0001348026812480068411C11480160114805
:1024E00082420ED900210D48017000210C48016084
:1024F00007480188074841180020087001210A4850
:1025000001707047A901FF1FB404FF1FCC04FF1F17
:10251000B003FF1FB203FF1FA801FF1FAA01FF1F87
:0C252000B804FF1F050000008F01FF1F22
:100400000000000000000000FFFFFFFF02FDFFFFF3
:102D3800202D2D2D2053797374656D20696E69746B
:062D4800202D2D2D2000BE
:0C2D4E0041540041544741494E3D3200C1
:0A2D5A0041545443534D443D3200F0
:102D640041544441544100000000000000000000B0
:102D7400000000000000000000000000000000004F
:102D8400000000000000000000000000000000003F
:102D9400000000000000000000000000000000002F
:102DA400000000000000000000000000000000001F
:102DB400000000000000000000000000000000000F
:102DC40000000000000000000000002D2D20522013
:102DD40076616C75653A002D2D20532076616C75F3
:102DE400653A002D2D20542076616C75653A002DCE
:102DF4002D20552076616C75653A002D2D205620C6
:102E040076616C75653A002D2D20572076616C75BE
:102E1400653A002D2D2D2D2D2D2D2D2D2D2D2D2DC6
:0A2E24002D2D2D2D2D2D2D2D00003C
:102E2E000000002B0000230000240000255C00267B
:102E3E0000000000000000003D3F003F00003D008C
:072E4E00003A00000D000036
:102E58006303000062030000FFFFFFFF00000000A3
:102E6800000000000000000000000000000000005A
:102E7800000000000000000000000000000000004A
:102E8800000000000000080000000800FFFFFFFF2E
:102E9800000000000000000000000000000000002A
:102EA800000000000000000000000000000000001A
:0C2EB8000000000000000000000000000E
:102EC4003103000030030000FFFFFFFF000000009B
:102ED40000000000000000000000000000000000EE
:102EE40000000000000000000000000000000000DE
:102EF400000000000000080000000800FFFFFFFFC2
:102F040000000000000000000000000000000000BD
:102F140000000000000000000000000000000000AD
:0C2F2400000000000000000000000000A1
:102F30005103000050030000FFFFFFFF00000000EE
:102F40000000000000000000000000000000000081
:102F50000000000000000000000000000000000071
:102F6000000000000000080000000800FFFFFFFF55
:102F70000000000000000000000000000000000051
:102F80000000000000000000000000000000000041
:0C2F900000000000000000000000000035
:102F9C008D170000B1170000BD1700009917000035
:102FAC00A5170000C91C0000A11D00007D1D00001C
:102FBC00591D0000651D0000711D0000951D0000CD
:102FCC00FFFFFFFFFFFFFFFFFFFFFFFFFFFFFFFF05
:102FDC00FFFFFFFFFFFFFFFFFFFFFFFFFFFFFFFFF5
:102FEC00FFFFFFFFFFFFFFFFFFFFFFFFFFFFFFFFE5
:102FFC0000000000000000000000000000000000C5
:01300C0000C3
:1030100000C20100000000000000000000000000ED
:0C30200085100000D9090000F109000033
:0A302C00000000000000000000009A
:00000001FF
