:0400000046EF19F0BE
:1000080000C01CF001C01BF002C01AF003C019F0B8
:1000180004C018F005C017F006C016F007C015F0A8
:10002800E1CF1DF0E2CF1EF09EA007D045EC17F0FF
:100038009E90F00ECF6E600ECE6E9EAA05D0B8D9F7
:1000480000C00CF6BFEC17F01CC000F01BC001F09C
:100058001AC002F019C003F018C004F017C005F068
:1000680016C006F015C007F01DC0E1FF1EC0E2FF74
:02007800110075
:0E007A0006010BB102D08B9601D08B861200CE
:0E00880006010BB102D08D9401D08D841200C0
:0E00960006010BB102D08B9A01D08B8A1200AA
:0E00A40006010BB102D08B9801D08B881200A0
:0E00B20006010BB102D08D9601D08D86120092
:0E00C00006010BB102D08B9E01D08B8E120078
:0E00CE0006010BB102D08A9001D08A80120088
:0E00DC0006010BB102D0899401D08984120074
:0E00EA0006010BB102D08B9801D08B8812005A
:0E00F80006010BB102D08B9C01D08B8C120044
:0E01060006010BB102D08B9801D08B8812003D
:0E01140006010BB102D08B9601D08B86120033
:0E01220006010BB102D08B9801D08B88120021
:0E01300006010BB102D0899201D08982120023
:0E013E0006010BB102D08F9201D08F82120009
:0E014C0006010BB102D08F9001D08F801200FF
:0E015A0006010BB102D08B9601D08B861200ED
:0E01680006010BB102D08F9401D08F841200DB
:0E01760006010BB102D08A9401D08A841200D7
:0E01840006010BB102D08B9201D08B821200CB
:0E01920006010BB102D08B9401D08B841200B9
:0E01A00006010BB102D08B9A01D08B8A12009F
:0E01AE0006010BB102D08A9201D08A821200A3
:1001BC000F0121B302D00000FBD70BC61CFF1200AD
:0E01CC00ACB202D00000FCD70BC6ADFF120093
:0E01DA0006010BB102D08B9601D08B8612006D
:0E01E80006010BB102D08D9201D08D82120063
:0E01F60006010BB102D0899801D08988120051
:0E02040006010BB102D08B9801D08B8812003E
:0E02120006010BB102D08B9601D08B86120034
:0E02200006010BB102D08D9001D08D8012002E
:0E022E0006010BB102D08B9A01D08B8A120010
:0E023C0006010BB102D08B9801D08B88120006
:0E024A0006010BB102D08B9001D08B80120008
:0E02580006010BB102D08B9C01D08B8C1200E2
:0E02660006010BB102D08B9E01D08B8E1200D0
:0E02740006010BB102D0899001D089801200E2
:0E02820006010BB102D08B9601D08B861200C4
:10029000F250026EF29E0500FF6A0150FE6E0050A1
:0802A000FD6E02BEF28E120099
:1002A8005AC2E1FF5BC2E2FF09C6E9FF0AC6EAFFDC
:1002B800EECFE6FF58C200F059C201F0E5DF006A50
:0202C800120022
:0A02CA00000E84B2010E006E120057
:0A02D400000E80B8010E006E12004B
:0A02DE00000E84B6010E006E12003F
:0A02E800000E80B4010E006E12003B
:0A02F200000E82BE010E006E120025
:0A02FC00000E82B6010E006E120023
:0A030600000E82B8010E006E120016
:0A031000000E82B6010E006E12000E
:0A031A00000E9EBA010E006E1200E4
:0A032400000E80B0010E006E120002
:0A032E00000E82B2010E006E1200F4
:1003380001C604F002C605F004C002F005C003F0CF
:10034800044A052A03C600F004C601F00601034B5F
:10035800042B00C0E9FF01C0EAFF02C0E1FF03C0AF
:10036800E2FFEECFE6FF02C0E9FF03C0EAFFEE526C
:0E03780001E0E2D701C600F002C601F012005B
:100386001DCF01F00F0122A302D02299228901C0BC
:0403960000F0120061
:0A039A00000E82B6010E006E120084
:0A03A400000E81B0010E006E120081
:0A03AE00000EACB2010E006E12004A
:1003B800AECF01F0ABA202D0AB98AB8801C000F081
:0203C800120021
:0A03CA00000E81B2010E006E120059
:0A03D400000E82B4010E006E12004C
:1003DE00FDC501F6FEC502F60D0E0601006F0A0EF2
:1003EE00036F35D001C609F602C60AF656DF3AD0BB
:1003FE0001C6E9FF02C6EAFFEE5209E001C609F6A0
:10040E0002C60AF64ADF0601014B022BF1D72AD0AB
:10041E0001C6E9FF02C6EAFFEE5209E001C609F67F
:10042E0002C60AF63ADF0601014B022BF1D706018E
:10043E00000E096F060E0A6F30DF030E0601096FFC
:10044E00060E0A6F2ADF0ED0060E006E0CD00501C6
:10045E00FF51000AC7E0FF51010ACAE0FF51020A2C
:08046E00D7E0F2D7006A12008A
:0E047600026A016A006A086A036A000E120038
:0A048400000E82BA010E006E120095
:0A048E00000E82B8010E006E12008D
:0A049800000E80B2010E006E12008B
:1004A2000501FF6B0601016B026B050E036F000E67
:1004B200046F000E056F000E066FFDC500F0FEC54D
:1004C20001F00501FD4BFE2B00C0E9FF01C0EAFF70
:1004D200EECF01F6000E0601026F000E026F01510F
:1004E20002111CE0070E0501FF15006E00C002F0AC
:1004F20001C600F002C601F0025005E0003600908D
:100502000136FF0FFAD700500601032701500423DA
:10051200000E052306230501FF2BCFD703C600F0EB
:0E05220004C601F005C602F006C603F0120082
:0A053000000E82BC010E006E1200E6
:10053A000B820BAEA7EF02F003680268016800683D
:08054A000A360232FF0E120016
:0A055200000E84B4010E006E1200CA
:0A055C00000E82B8010E006E1200BE
:080566000AAE029E000E120015
:10056E000B840BAEC2EF02F0010E036E026A016A3B
:0A057E00006A0A360232FF0E120076
:100588000501FD6BFE6B0601076B086B000E061973
:1005980002E10551000A35E00501FD51060101257A
:1005A800E96E0501FE5106010221EA6EEECF02F066
:1005B80002C004F00501FD4BFE2B0601075103257F
:1005C800D96E08510421DA6EDECF01F001C005F0C2
:1005D800074B082B025001180BE00550045C03E29E
:1005E800FF0E036E02D0010E036E03C000F00AD0A6
:1005F800000E041801E105D0010E055F000E065B30
:06060800C5D7006A1200D4
:10060E000B6A0A6A096A00500402F4CF09F0F3CFAC
:10061E0008F001500502F4CF0BF0F3CF0AF00050B2
:10062E000502F3500926F4500A22E86A0B22015003
:10063E000402F3500926F4500A22E86A0B2208C07D
:10064E0000F009C001F00AC002F00BC003F0120066
:0A065E00000E84B0010E006E1200C1
:0A066800000E82B8010E006E1200B1
:0C067200000E0F0121B3010E006E1200FB
:0A067E00000E86B0010E006E12009F
:0A068800000E81B4010E006E120096
:0A069200000EA4BA010E006E120063
:0A069C00000E86B2010E006E12007F
:0A06A600000E82B6010E006E120075
:0A06B000000E82B0010E006E120071
:0A06BA00000E86B4010E006E12005F
:0A06C400000E82BC010E006E120051
:0A06CE00000E82BE010E006E120045
:0A06D800000E82BA010E006E12003F
:0A06E200000E82B8010E006E120037
:0A06EC00000E82B6010E006E12002F
:0A06F600000E82B6010E006E120025
:100700000601016B026B036B046B01510501FD25B2
:10071000D96E060102510501FE21DA6E000EDE18C7
:1007200006E00601014B022B034B042BEED703C658
:0807300000F004C601F0120004
:0A073800000E82B8010E006E1200E0
:0A074200000E82BA010E006E1200D4
:10074C00F3C5F7F5F4C5F8F5F3C5FDF5F4C5FEF5FD
:10075C00020E0501FF6F3DDE260E0601016F000E35
:0E076C00026FF7C503F6F8C504F6E0DD1200D3
:10077A000CB0FFEF03F00CA2A5EF04F00E6A000E16
:10078A00026416EF04F0F00E0214D8A4E1EF03F0AD
:10079A00023A01380F0B02260138F00B016E0038BD
:1007AA000F0B01260038F00B006E08380F0B0026DD
:1007BA000838F00B086E0E84D89002BEFAEF03F0E8
:1007CA0008360036013602360E2A02BEFAEF03F068
:1007DA0008360036013602360E2A02BEFAEF03F058
:1007EA0008360036013602360E2A0E5003649BEF95
:1007FA0004F0035E0BBC08AEA0EF04F0D880800EB4
:10080A0008640030000E002201220222D8A0A0EFC4
:10081A0004F0023201320032034AA5EF04F0A0EFDD
:10082A0004F001C002F000C001F008C000F0086A3C
:10083A00000E0E8602644DEF04F0F00E0214D8A4E6
:10084A0035EF04F0023A01380F0B02260138F00B9B
:10085A00016E00380F0B01260038F00B006E0E8473
:10086A00D89002BEFAEF03F00036013602360E2A9D
:10087A0002BEFAEF03F00036013602360E2A02BE35
:10088A00FAEF03F00036013602360E2AFAEF03F0C9
:10089A0001C002F000C001F0006A000E0E960E8838
:1008AA0002647AEF04F0F00E0214D8A465EF04F0A3
:1008BA00023A01380F0B02260138F00B016E0E8442
:1008CA00D89002BEFAEF03F0013602360E2A02BEB3
:1008DA00FAEF03F0013602360E2A02BEFAEF03F0EF
:1008EA00013602360E2AFAEF03F001C002F0016A5D
:1008FA00000E0E860264AAEF04F0F00E0214D8A4C9
:10090A0089EF04F0023A0E84D89002BEFAEF03F09F
:10091A0002360E2A02BEFAEF03F002360E2A02BE91
:10092A00FAEF03F002360E2AFAEF03F0010E0C6E0C
:10093A0019DEADEF04F0020E0C6E10DEADEF04F01E
:10094A00040E0C6EF5DDADEF04F0080E0C6E8EDDB4
:02095A00120089
:10095C00F3C501F0F4C502F00501F96BFA6B000E5A
:10096C00F81902E1F751000A1CE0F951F525E96E7E
:10097C00FA51F621EA6E01C0E1FF02C0E2FFEECFB0
:10098C00E6FF01C0D9FF02C0DAFF000EDE1802E05C
:10099C00F94BFA2B014A022A010EF75F000EF85BA5
:0409AC00DED7120080
:1009B0000C6A0E6A0250D8A4F1EF04F001C002F0F4
:1009C00000C001F0006A0E860250D8A4F1EF04F0D6
:1009D00001C002F0016A0E960E880250D8B403EFEF
:1009E00005F00E50035ED8A4D8A008EF05F0D8900B
:1009F00002BE0DEF05F0003601360236032EF8EF89
:100A000004F008EF05F0010E0C6E35DD10EF05F077
:100A1000020E0C6EACDD10EF05F0040E0C6EA3DDC3
:020A20001200C2
:100A22000501F66BF76BF3C5FDF5F4C5FEF567DE60
:100A320000C0F5F5F3C5FDF5F4C5FEF531DD00C0E6
:100A4200F8F501C0F9F502C0FAF503C0FBF5010E95
:100A52000501F66F000EF76F0301D1510501F75D35
:100A620004E10301D0510501F65D48E20E0E006E6D
:100A7200000E016EF6C504F0F7C505F0C7DDD20E13
:100A82000024E96E030E0120EA6EEECF01F0EECFF4
:100A920002F0000E021802E1F55101182CE10E0ECF
:100AA200006E000E016EF6C504F0F7C505F0AEDD6E
:100AB200D20E0026030E0122020E0024E96E000E61
:100AC2000120EA6EEECF01F0EECF02F0EECF03F09E
:100AD200EECF04F00450FB1908E10350FA1905E1C6
:100AE2000250F91902E10150F81905E1F6C500F0CA
:100AF200F7C501F005D0F64BF72BAED7006A016AB5
:020B02001200DF
:100B04000501F96BFA6BFB6BFC6BF3C5FDF5F4C5E2
:100B1400FEF5F4DD00C0F9F50050100803E2100EF4
:100B24000501F96F0501010EFC6FF751FC5D4CE204
:100B3400030E006E000E016EFCC504F0000E056E7F
:100B440064DD0050F525FD6F0150F621FE6FD6DD02
:100B540000C0FBF50501FA6BF951FA5D33E2030EAF
:100B6400006E000E016EFCC504F0000E056E4DDD36
:100B74000050F5250601016F01500501F62106011B
:100B8400026F0501FA51F3250601036F000E0501FA
:100B9400F4210601046FFBC505F6000E066FF2DCB6
:100BA40000520DE1000E0501F81903E1FCC500F047
:100BB4000CD0010EF81903E1FAC500F006D00501C6
:0C0BC400FA2BCAD7FC2BB1D7006A120034
:100BD000CC0E0101486F010E496F0B0E4A6F060ED5
:100BE0004B6FB80E446F030E456F000E466F000E3C
:100BF000476F1A0E3C6F030E3D6F000E3E6F000EE6
:100C00003F6FAE0E406F030E416F000E426F000E3D
:100C1000436FAC8A900EAB6E948E949C9EAA03D0C8
:080C2000AECF00F0FBD712007B
:100C2800BC0E0101486F010E496F0B0E4A6F060E8C
:100C38004B6F860E446F030E456F000E466F000E15
:100C4800476F920E3C6F060E3D6F000E3E6F000E12
:100C58003F6F720E406F060E416F000E426F000E1E
:100C6800436F0F01218B900E226F98849892A4AA4B
:0A0C780003D01DCF00F0FBD71200DF
:100C820000C008F00150006E016A026A036A0B6A32
:100C92000C6A016A026A036A960E036E0A6A00AE61
:100CA20059EF06F0081E001E082AD8B4002A0A8E40
:100CB20000C001F008C000F0086A026A78DE120083
:100CC200086A096A000E07620364E6EF06F0025042
:100CD20006180A6E075003267E0ED8A077EF06F09C
:100CE200035ED8B0EBEF06F07BEF06F0035ED8A010
:100CF200F0EF06F0028E068E02C00EF001C00BF07D
:100D020000C00DF000500402F4CF0CF001500502B7
:100D1200F4CF00F0F3CF08F00402F3500C26F450A5
:100D22000822000E00220D500502F3500C26F4504A
:100D32000822000E002202500402F3500826F4504A
:100D4200002202500502016A000E0122F350002621
:100D5200F45001220D500602F3500826F4500022EE
:100D6200026A000E012202220B500602F3500026F4
:100D7200F4500122000E02220E500602F350012608
:100D8200F450022202BECEEF06F0083600360136DB
:100D920002360306D8B4F0EF06F0E1EF06F0D88091
:100DA200800E08640030000E002201220222D8A028
:100DB200E1EF06F0023201320032034AEBEF06F0B5
:100DC2000AAE029E000EF3EF06F0010E3BEC02F0BB
:100DD200F3EF06F0020E9DEC02F0F3EF06F0040EC4
:060DE200B7EC02F0120064
:100DE800300E0501D75D06E3D751390803E3010E3C
:080DF800006E01D0006A120038
:100E0000086A096A100E0C6E01340836093604505F
:100E1000085E0550D8A0053C095ED8B007D0045044
:100E200008260550D8B0053C0926D8900036013672
:060E30000C2EEAD71200AF
:100E3600C3C2E1FFC4C2E2FFD7C5E6FFC1C200F0EC
:0A0E4600C2C201F048EC01F01200F6
:100E5000025006180E6E086A096A0B6A035007648E
:100E60001BEF08F006500A6E068E028E03500B6EC2
:100E70000750036E000E0B646BEF07F00B50075E1C
:100E8000D8B40CEF08F0070E0764DAEF07F0075E3E
:100E900000C008F001C000F002C001F0026A074E75
:100EA0000CEF08F00764AFEF07F0075E00C008F032
:100EB00001C000F0016A074E0CEF08F007648DEFE7
:100EC00007F0075E00C008F0006A074E0CEF08F05C
:100ED000076474EF07F00AC002F005C001F004C017
:100EE00000F0086A38EF09F0030E07647FEF07F09F
:100EF000075E08380F0B086E074E0CEF08F0D8900D
:100F00000832074E0CEF08F0D8900832074E0CEF6D
:100F100008F0D89008320CEF08F0030E07649EEF3B
:100F200007F0075E08380F0B086E0038F00B082634
:100F300000380F0B006E074E0CEF08F0D89000320F
:100F40000832074E0CEF08F0D89000320832074EF6
:100F50000CEF08F0D890003208320CEF08F0030EC6
:100F60000764C6EF07F0075E08380F0B086E0038FD
:100F7000F00B082600380F0B006E0138F00B00262E
:100F800001380F0B016E074E0CEF08F0D8900132BC
:100F900000320832074E0CEF08F0D89001320032D0
:100FA0000832074E0CEF08F0D890013200320832B8
:100FB0000CEF08F0030E0764F7EF07F0075E083840
:100FC0000F0B086E0038F00B082600380F0B006E70
:100FD0000138F00B002601380F0B016E0238F00BC0
:100FE000012602380F0B026E074E0CEF08F0D89066
:100FF0000232013200320832074E0CEF08F0D8906E
:101000000232013200320832074E0CEF08F0D8905D
:101010000232013200320832096A000E0EAE00EFD1
:1010200009F0081E001E011E021E082A00220122CD
:10103000022200EF09F00750D8A421EF08F038EFA2
:1010400009F0096A02C00AF0028E068E0750035C9E
:10105000076ED8B4F3EF08F0070E0764C1EF08F08D
:10106000075E0450096E0550046E0650056E066A50
:10107000074EF3EF08F0070E076496EF08F0075EDF
:101080000450096E0550046E056A074EF3EF08F030
:10109000070E076474EF08F0075E0450096E046AD7
:1010A000074EF3EF08F0070E07645BEF08F00AC085
:1010B00002F038EF09F0030E076466EF08F0075EF0
:1010C00009380F0B096E074EF3EF08F0D89009327C
:1010D000074EF3EF08F0D8900932074EF3EF08F00F
:1010E000D8900932F3EF08F0030E076485EF08F09B
:1010F000075E09380F0B096E0438F00B0926043817
:101100000F0B046E074EF3EF08F0D890043209324B
:10111000074EF3EF08F0D89004320932074EF3EF90
:1011200008F0D89004320932F3EF08F0030E076498
:10113000ADEF08F0075E09380F0B096E0438F00BAD
:10114000092604380F0B046E0538F00B0426053809
:101150000F0B056E074EF3EF08F0D89005320432FE
:101160000932074EF3EF08F0D89005320432093205
:10117000074EF3EF08F0D890053204320932F3EF4E
:1011800008F0030E0764DEEF08F0075E09380F0B66
:10119000096E0438F00B092604380F0B046E05386D
:1011A000F00B042605380F0B056E0638F00B0526EC
:1011B00006380F0B066E074EF3EF08F0D890063294
:1011C000053204320932074EF3EF08F0D8900632A8
:1011D000053204320932074EF3EF08F0D890063298
:1011E000053204320932086A000E0EAE00EF09F033
:1011F000091E041E051E061E092A042205220622B7
:1012000009500826045000220550012206500222EF
:101210000EBE17EF09F0D8A026EF09F00232013216
:1012200000320832033E26EF09F032EF09F0D8B061
:101230002CEF09F0000E081E001E011E021E082AD7
:101240000022012202220A7E2CEF09F0010E0C6E10
:10125000BDEC03F03AEF09F0020E0C6EBDEC03F0AA
:101260003AEF09F0040E0C6E9DEC02F03AEF09F033
:06127000000E0C6E1200DE
:101276000501DB6BDC6BDD6BDE6BDF6BE06BE16B63
:10128600E26BE36BE46BE56BE66BE76BE86BE96BD4
:10129600EA6BEB6BEC6BED6BEE6BEF6BF06BD7C544
:1012A600F3F5D8C5F4F5140EF56F010EF66F070EBB
:1012B600F76FF86B24DC00C0DCF5D7C5F3F5D8C5AD
:1012C600F4F5140EF56F010EF66F070EF76F010EAB
:1012D600F86F15DC00C0DDF5D7C5F3F5D8C5F4F514
:1012E600290EF56F010EF66F060EF76FF86B07DC29
:1012F60000C0DEF5D7C5F3F5D8C5F4F5290EF56FB0
:10130600010EF66F060EF76F010EF86F82EC05F010
:1013160000C0DFF5000E001802E1100EDF6FE00ED0
:10132600F36F050EF46FDD51D725F56F000ED8214A
:10133600F66FDD51DF5DF76FF86B000EF85BAEEC14
:1013460004F0E00EF36F050EF46F11EC05F000C02B
:10135600DBF5000E016E0E0E046E000E056E07EC38
:1013660003F0D20E0026030E01220A0E0024E96EB7
:10137600000E0120EA6ED9C5E1FFDAC5E2FFEECF25
:10138600E6FFEECFE6FFEECFE6FFEECFE6FF040E7A
:10139600D925F16F000EDA21F26F0E0E006E000EE7
:1013A600016EDBC504F0000E056E07EC03F0D20EED
:1013B6000026030E0122060E0024E96E000E01200F
:1013C600EA6EF1C5E1FFF2C5E2FFEECFE6FFEECF32
:1013D600E6FFEECFE6FFEECFE6FF080ED925E16E7B
:1013E600000EDA21E26EDCC5E6FF080ED925006E96
:1013F600000EDA21016E010E0024E16E000E0120BE
:08140600E26EDEC5E6FF1200F4
:10140E000B800BAE13EF0AF0026A0AAEFF0E026EED
:0C141E00016E006E0A360232FF0E120052
:0E142A009FC500F0A0C501F048EC01F01200D3
:0E143800C5C200F0C6C201F048EC01F012007F
:10144600300E0501C525006E000EC621016E000E88
:10145600C721026E1C0E0024F66E000E0120F76EE8
:10146600000E0220F86E0900F5CF92F50900F5CFBF
:1014760093F50900F5CF94F50900F5CF95F5040E1F
:10148600C525F66E000EC621F76E000EC721F86E52
:101496000900F5CFC9F20900F5CFCAF20900F5CF68
:0A14A600CBF20900F5CFCCF21200E2
:1014B000C5C5F6FFC6C5F7FFC7C5F8FF0900F5CFDC
:1014C000C1F20900F5CFC2F20900F5CFC3F209005D
:1014D000F5CFC4F2040E0501C525F66E000EC62137
:1014E000F76E000EC721F86E0900F5CFC5F20900AE
:1014F000F5CFC6F20900F5CFC7F20900F5CFC8F263
:10150000080EC525F66E000EC621F76E000EC72127
:10151000F86E0900F5CF9FF50900F5CFA0F5090099
:0C152000F5CFA1F50900F5CFA2F51200EF
:10152C003CD00F012087060E1F6F820E1E6F218587
:10153C0014EC06F081D00F012087030E1F6F400EB4
:10154C001E6F218514EC06F077D00F012087010E59
:10155C001F6FA00E1E6F218514EC06F06DD00F01CD
:10156C0020871F6BCF0E1E6F218514EC06F064D004
:10157C000F0120871F6B8A0E1E6F218514EC06F05D
:10158C005BD00F0120871F6B440E1E6F218514EC5E
:10159C0006F052D0060E006E59D0000E006E0501FA
:1015AC00C81908E10050C71905E1120EC61902E16D
:1015BC00C551C00AB6E0000E006EC81908E1005013
:1015CC00C71905E1250EC61902E1C551800AB3E021
:1015DC00000E006EC81908E10050C71905E14B0E4A
:1015EC00C61902E1C551000AB0E0000E006EC81920
:1015FC0008E10050C71905E1960EC61902E1C55164
:10160C00000AADE0000E006EC81908E10050C719C1
:10161C0005E1E10EC61902E1C551000AA9E0C85165
:10162C00000A08E1C751010A05E1C651C20A02E1EC
:10163C00C551000AA6E0AED7BC0E0201586F010ED0
:0E164C00596F0B0E5A6F060E5B6F006A12008C
:10165A00050E0B6E0F0E0C6EF10E0D6E0D2EFED7D3
:0A166A000C2EFCD70B2EFAD712004D
:10167400C5C5C8F5C6C5C9F5C7C5CAF527D0670E1F
:10168400AF6EAC94E8EC05F0DED0CF0EAF6EAC8458
:10169400E8EC05F0D8D0670EAF6EAC84E8EC05F04A
:1016A400D2D0330EAF6EAC84E8EC05F0CCD0220E71
:1016B400AF6EAC84E8EC05F0C6D0100EAF6EAC840F
:1016C400E8EC05F0C0D0050E006EBFD0C8C5F6FF2B
:1016D400C9C5F7FFCAC5F8FF0900F5CF01F0090035
:1016E400F5CF02F00900F5CF03F00900F5CF04F0BF
:1016F400000E006E041808E10050031805E1120EF4
:10170400021802E10150C00ABAE0C8C5F6FFC9C513
:10171400F7FFCAC5F8FF0900F5CF01F00900F5CFBE
:1017240002F00900F5CF03F00900F5CF04F0000E34
:10173400006E041808E10050031805E1250E021894
:1017440002E10150800AA1E0C8C5F6FFC9C5F7FF50
:10175400CAC5F8FF0900F5CF01F00900F5CF02F082
:101764000900F5CF03F00900F5CF04F0000E006E78
:10177400041808E10050031805E14B0E021802E1B9
:101784000150000A88E0C8C5F6FFC9C5F7FFCAC5FD
:10179400F8FF0900F5CF01F00900F5CF02F00900C8
:1017A400F5CF03F00900F5CF04F0000E006E041825
:1017B40008E10050031805E1960E021802E10150F9
:1017C400000AD8B46ED7C8C5F6FFC9C5F7FFCAC5A5
:1017D400F8FF0900F5CF01F00900F5CF02F0090088
:1017E400F5CF03F00900F5CF04F0000E006E0418E5
:1017F40008E10050031805E1E10E021802E101506E
:10180400000AD8B454D7C8C5F6FFC9C5F7FFCAC57E
:10181400F8FF0900F5CF01F00900F5CF02F0090047
:10182400F5CF03F00900F5CF04F00450000A08E1F5
:101834000350010A05E10250C20A02E10150000A04
:0C184400D8B43BD740D7000E006E120055
:1018500027D0670EAF6EAC94E8EC05F070D0CF0ED9
:10186000AF6EAC84E8EC05F06AD0670EAF6EAC8466
:10187000E8EC05F064D0330EAF6EAC84E8EC05F014
:101880005ED0220EAF6EAC84E8EC05F058D0100E9E
:10189000AF6EAC84E8EC05F052D0060E006E59D065
:1018A000000E006E0501C81908E10050C71905E1D6
:1018B000120EC61902E1C551C00ACBE0000E006E3F
:1018C000C81908E10050C71905E1250EC61902E143
:1018D000C551800AC4E0000E006EC81908E100502E
:1018E000C71905E14B0EC61902E1C551000ABDE05A
:1018F000000E006EC81908E10050C71905E1960EE8
:10190000C61902E1C551000AB6E0000E006EC81902
:1019100008E10050C71905E1E10EC61902E1C55101
:10192000000AAFE0C851000A08E1C751010A05E109
:10193000C651C20A02E1C551000AA9E0AED7CC0ED9
:101940000201586F010E596F0B0E5A6F060E5B6F36
:04195000006A120017
:1019540027D0670EAF6EAC94E8EC05F070D0CF0ED4
:10196400AF6EAC84E8EC05F06AD0670EAF6EAC8461
:10197400E8EC05F064D0330EAF6EAC84E8EC05F00F
:101984005ED0220EAF6EAC84E8EC05F058D0100E99
:10199400AF6EAC84E8EC05F052D0060E006E59D060
:1019A400000E006E0501C81908E10050C71905E1D1
:1019B400120EC61902E1C551C00ACBE0000E006E3A
:1019C400C81908E10050C71905E1250EC61902E13E
:1019D400C551800AC4E0000E006EC81908E1005029
:1019E400C71905E14B0EC61902E1C551000ABDE055
:1019F400000E006EC81908E10050C71905E1960EE3
:101A0400C61902E1C551000AB6E0000E006EC819FD
:101A140008E10050C71905E1E10EC61902E1C551FC
:101A2400000AAFE0C851000A08E1C751010A05E104
:101A3400C651C20A02E1C551000AA9E0AED7CC0ED4
:101A44000201586F010E596F0B0E5A6F060E5B6F31
:041A5400006A120012
:061A5800050E006E1200F5
:101A5E0027D0670EAF6EAC94E8EC05F070D0CF0EC9
:101A6E00AF6EAC84E8EC05F06AD0670EAF6EAC8456
:101A7E00E8EC05F064D0330EAF6EAC84E8EC05F004
:101A8E005ED0220EAF6EAC84E8EC05F058D0100E8E
:101A9E00AF6EAC84E8EC05F052D0060E006E59D055
:101AAE00000E006E0501C81908E10050C71905E1C6
:101ABE00120EC61902E1C551C00ACBE0000E006E2F
:101ACE00C81908E10050C71905E1250EC61902E133
:101ADE00C551800AC4E0000E006EC81908E100501E
:101AEE00C71905E14B0EC61902E1C551000ABDE04A
:101AFE00000E006EC81908E10050C71905E1960ED8
:101B0E00C61902E1C551000AB6E0000E006EC819F2
:101B1E0008E10050C71905E1E10EC61902E1C551F1
:101B2E00000AAFE0C851000A08E1C751010A05E1F9
:101B3E00C651C20A02E1C551000AA9E0AED7CC0EC9
:101B4E000201586F010E596F0B0E5A6F060E5B6F26
:041B5E00006A120007
:101B6200C5C5C8F5C6C5C9F5C7C5CAF527D0670E2C
:101B7200AF6EAC94E8EC05F0DED0CF0EAF6EAC8465
:101B8200E8EC05F0D8D0670EAF6EAC84E8EC05F057
:101B9200D2D0330EAF6EAC84E8EC05F0CCD0220E7E
:101BA200AF6EAC84E8EC05F0C6D0100EAF6EAC841C
:101BB200E8EC05F0C0D0050E006EBFD0C8C5F6FF38
:101BC200C9C5F7FFCAC5F8FF0900F5CF01F0090042
:101BD200F5CF02F00900F5CF03F00900F5CF04F0CC
:101BE200000E006E041808E10050031805E1120E01
:101BF200021802E10150C00ABAE0C8C5F6FFC9C521
:101C0200F7FFCAC5F8FF0900F5CF01F00900F5CFCB
:101C120002F00900F5CF03F00900F5CF04F0000E41
:101C2200006E041808E10050031805E1250E0218A1
:101C320002E10150800AA1E0C8C5F6FFC9C5F7FF5D
:101C4200CAC5F8FF0900F5CF01F00900F5CF02F08F
:101C52000900F5CF03F00900F5CF04F0000E006E85
:101C6200041808E10050031805E14B0E021802E1C6
:101C72000150000A88E0C8C5F6FFC9C5F7FFCAC50A
:101C8200F8FF0900F5CF01F00900F5CF02F00900D5
:101C9200F5CF03F00900F5CF04F0000E006E041832
:101CA20008E10050031805E1960E021802E1015006
:101CB200000AD8B46ED7C8C5F6FFC9C5F7FFCAC5B2
:101CC200F8FF0900F5CF01F00900F5CF02F0090095
:101CD200F5CF03F00900F5CF04F0000E006E0418F2
:101CE20008E10050031805E1E10E021802E101507B
:101CF200000AD8B454D7C8C5F6FFC9C5F7FFCAC58C
:101D0200F8FF0900F5CF01F00900F5CF02F0090054
:101D1200F5CF03F00900F5CF04F00450000A08E102
:101D22000350010A05E10250C20A02E10150000A11
:0C1D3200D8B43BD740D7000E006E120062
:101D3E000501C96B050EC95D0AE2C951C725E16EE1
:101D4E00000EC821E26E200EE66EC92BF3D7C951E4
:101D5E00C725E16E000EC821E26EE66AC907C951B9
:101D6E00C725CA6F000EC821CB6F0A0E046E000E77
:101D7E00056EC5C500F0C6C501F000EC07F008C041
:101D8E0000F009C001F0300E0026CAC5E1FFCBC538
:101D9E00E2FF00C0E6FF0A0E046E000E056EC5C51A
:101DAE0000F0C6C501F000EC07F000C0C5F501C09B
:101DBE00C6F5000E011802E1000E001801E102D076
:061DCE00C907CDD7120089
:101DD400C5C5E9FFC6C5EAFFEE500501C71912E003
:101DE400C5C500F0C6C501F0C54BC62B00C0E9FF50
:101DF40001C0EAFFEECF00F0005203E1006A016A7D
:0E1E040005D0E6D7C5C500F0C6C501F0120036
:101E12000501CD6BCE6BCF6BD06BD16BD26BC5C5D1
:101E220000F0C6C501F0C54BC62B00C0E9FF01C0DA
:101E3200EAFFEECFC7F5000EC86F000EC86F000EA6
:101E4200C81902E1000EC7193BE0C7C5D7F5F4EC8B
:101E520006F0005235E0CDC500F0CEC501F0CFC589
:101E620002F0D0C503F0000E046E000E056E200EC7
:101E7200066E820E076E61EC06F000C0D3F501C05B
:101E8200D4F502C0D5F503C0D6F5300EC75D006E9D
:101E9200000EC859016E41EC06F0D3C504F0D4C55A
:101EA20005F0D5C506F0D6C507F028EC07F000C04E
:101EB200CDF501C0CEF502C0CFF503C0D0F5AFD746
:101EC200000EC81902E12E0EC71955E1C5C500F072
:101ED200C6C501F0C54BC62B00C0E9FF01C0EAFF31
:101EE200EECFC7F5000EC86F000EC86F000EC819FE
:101EF20002E1000EC7193FE0C7C5D7F5F4EC06F0C2
:101F0200005239E0CDC500F0CEC501F0CFC502F0D8
:101F1200D0C503F0000E046E000E056E200E066E94
:101F2200820E076E61EC06F000C0D3F501C0D4F555
:101F320002C0D5F503C0D6F5300EC75D006E000EA7
:101F4200C859016E41EC06F0D3C504F0D4C505F0C2
:101F5200D5C506F0D6C507F028EC07F000C0CDF5D0
:101F620001C0CEF502C0CFF503C0D0F5010ED15F9E
:101F7200000ED25BABD7000EC81902E1650EC7197D
:101F820007E0000EC81902E1450EC71901E072D040
:101F9200010EC96F000ECA6FCB6BCC6BC5C5E9FFD2
:101FA200C6C5EAFFEECFC7F5000EC86F000EC86FB8
:101FB200C54BC62B000EC81902E12B0EC7190DE145
:101FC200C5C5E9FFC6C5EAFFEECFC7F5000EC86F6B
:101FD200000EC86FC54BC62B16D0000EC81902E101
:101FE2002D0EC71910E1C5C5E9FFC6C5EAFFEECF40
:101FF200C7F5000EC86F000EC86FC54BC62BFF0E8B
:10200200C96FFF0ECA6FC7C5D7F5F4EC06F00052D0
:1020120023E0CBC500F0CCC501F00A0E046E000E21
:10202200056E07EC03F0300EC75D026E000EC85954
:10203200036E02500024CB6F03500120CC6FC5C544
:10204200E9FFC6C5EAFFEECFC7F5000EC86F000E66
:10205200C86FC54BC62BD7D7CBC500F0CCC501F096
:10206200C9C504F0CAC505F007EC03F00050D1273A
:102072000150D223800E006E800ED219005C02E164
:10208200D15100081FE2CDC500F0CEC501F0CFC589
:1020920002F0D0C503F0000E046E000E056E200E95
:1020A200066E820E076E61EC06F000C0CDF501C02F
:1020B200CEF502C0CFF503C0D0F5010ED15F000E00
:1020C200D25BD8D7800ED219006E800E005C02E17E
:1020D200000ED15D1DE2CDC500F0CEC501F0CFC529
:1020E20002F0D0C503F0CD0E046ECC0E056E4C0E80
:1020F200066E7B0E076E61EC06F000C0CDF501C0E6
:10210200CEF502C0CFF503C0D0F5D14BD22BDAD732
:10211200CDC500F0CEC501F0CFC502F0D0C503F0A9
:022122001200A9
:1021240059D00501C6B102D0929201D092820F011A
:10213400259376D00501C6B102D0929801D0928839
:102144006FD00501C6B102D0969201D0968268D0B4
:102154000501C6B102D0949601D0948661D00501E0
:10216400C6B102D0949801D094885AD00501C6B162
:1021740002D0949A01D0948A53D00501C6B102D0FA
:10218400949401D094844CD00501C6B102D09392AA
:1021940001D0938245D00501C6B102D0949E01D0EE
:1021A400948E3ED00501C6B102D0949C01D0948C8B
:1021B40037D00501C6B102D0949601D0948630D0B0
:1021C4000501C6B102D0949801D0948829D0010E9B
:1021D400006E28D00501C551000AA3E0C551010ACB
:1021E400A9E0C551020AADE0C551030AB1E0C551E9
:1021F400040AB5E0C551050AB9E0C551060ABDE0B7
:10220400C551070AC1E0C551080AC5E0C551090A0C
:10221400C9E0C5510A0ACDE0C5510B0AD1E0D7D7B0
:06222400000E006E120026
:10222A00C5C5D9FFC6C5DAFF000EDE180CE0C5C564
:10223A00E9FFC6C5EAFFEECFD7F51BEC07F00501AB
:10224A00C54BC62BEDD7C7C5D7F51BEC07F00A0E51
:0A225A000501D76F1BEC07F012001E
:1022640059D00501C6B102D0929001D092800F01DD
:10227400259176D00501C6B102D0949001D0948006
:102284006FD00501C6B102D0969001D0968068D077
:102294000501C6B102D0949601D0948661D005019F
:1022A400C6B102D0949801D094885AD00501C6B121
:1022B40002D0949A01D0948A53D00501C6B102D0B9
:1022C400949201D094824CD00501C6B102D093906F
:1022D40001D0938045D00501C6B102D0949E01D0AF
:1022E400948E3ED00501C6B102D0949C01D0948C4A
:1022F40037D00501C6B102D0949601D0948630D06F
:102304000501C6B102D0949801D0948829D0010E59
:10231400006E28D00501C551000AA3E0C551010A89
:10232400A9E0C551020AADE0C551030AB1E0C551A7
:10233400040AB5E0C551050AB9E0C551060ABDE075
:10234400C551070AC1E0C551080AC5E0C551090ACB
:10235400C9E0C5510A0ACDE0C5510B0AD1E0D7D76F
:06236400000E006E1200E5
:10236A005DD00501C6B102D0929401D092840F01CA
:10237A0025957AD00501C6B102D0969601D09686E7
:10238A0073D00501C6B102D0969401D096846CD060
:10239A000501C6B102D0949601D0948665D0050194
:1023AA00C6B102D0949801D094885ED00501C6B116
:1023BA0002D0949A01D0948A57D00501C6B102D0AE
:1023CA00989001D0988050D00501C6B102D093945C
:1023DA0001D0938449D00501C6B102D0989401D0A6
:1023EA0098840F01239540D00501C6B102D0989276
:1023FA0001D098820F01239337D00501C6B102D0CC
:10240A00949601D0948630D00501C6B102D0949832
:10241A0001D0948829D0010E006E28D00501C5513B
:10242A00000A9FE0C551010AA5E0C551020AA9E0C8
:10243A00C551030AADE0C551040AB1E0C551050A08
:10244A00B5E0C551060AB9E0C551070ABDE0C55154
:10245A00080AC1E0C551090AC7E0C5510A0ACDE018
:0E246A00C5510B0AD1E0D7D7000E006E12004C
:10247800000E016E000E011807E015EC0AF0000EC0
:10248800001802E01CEC0AF00501A45344E0020124
:10249800CD6B05019E6B020EB01913E1A8C5E1FFD3
:1024A800A9C5E2FFD00EE66E020EE66EAE0EE66E2F
:1024B800050EE66EA6C500F0A7C501F048EC01F0D0
:1024C8001FD0D00E0501D76F020ED86FA60ED96F98
:1024D800050EDA6F3BEC09F0020EB06FA8C5E1FFFC
:1024E800A9C5E2FFD00EE66E020EE66EAE0EE66EEF
:1024F800050EE66EA6C500F0A7C501F048EC01F090
:102508000501A46B0201CE6BCF6BD06B0501A56BE7
:10251800A36B0201C06B0501A3532AE00201CD6B36
:1025280005019E6BD00ED76F020ED86FA60ED96F1D
:10253800050EDA6F3BEC09F0B06BA8C5E1FFA9C541
:10254800E2FFD00EE66E020EE66EAE0EE66E050EE9
:10255800E66EA6C500F0A7C501F048EC01F002013F
:10256800CE6BCF6BD06B0501A56BA36B0201C06B63
:102578000501A5532BE00201CD6B05019E6BD00E22
:10258800D76F020ED86FA60ED96F050EDA6F3BEC27
:1025980009F0010EB06FA8C5E1FFA9C5E2FFD00E92
:1025A800E66E020EE66EAE0EE66E050EE66EA6C589
:1025B80000F0A7C501F048EC01F00201CE6BCF6B2B
:0E25C800D06B0501A56BA36B0201C06B120066
:1025D600290E0B6E960E0C6E7F0E0D6E0D2EFED70F
:0A25E6000C2EFCD70B2EFAD71200C2
:1025F0000B6A0C6A0A6A0350D8B442EF13F0028ED9
:102600008E0E035E03BE0AEF13F0D8B40AEF13F088
:1026100046EF13F0036C080E035CD8A021EF13F013
:10262000036E013602C001F0026A080E035CD8A0F6
:1026300021EF13F00136016A0350D8A4D8902BEF94
:1026400013F00350D8B42BEF13F0D89002320132BC
:10265000032E25EF13F00BBC01A038EF13F0D8A028
:1026600038EF13F0012AD8B4022A02BE55EF13F056
:102670000AAE5BEF13F0021E011E012AD8B4022A33
:102680005BEF13F0026A016A5BEF13F00B800BAE95
:102690005FEF13F0026A0AAE5FEF13F0FF0E026EF7
:1026A000016E0A3602325FEF13F0010E0C6E07EC7A
:1026B0000AF061EF13F0000E0C6E61EF13F0FF0EE5
:0C26C0000C6E0150006E0250016E120002
:1026CC00C5C502F0C6C503F0C9C500F00501C907B0
:1026DC00005209E002C0E1FF03C0E2FFC7C5E6FFFC
:1026EC00024A032AF1D7C5C500F0C6C501F0120095
:1026FC000501C96BCA6BCB6BCC6BC9C500F0CAC5E5
:10270C0001F0C94BCA2B0050C525026E0150C621E1
:10271C00036ECBC500F0CCC501F0CB4BCC2B0050DD
:10272C00C725E96E0150C821EA6E02C0E1FF03C063
:10273C00E2FFEECFE6FF02C0E9FF03C0EAFFEE5076
:08274C00000A01E0DAD71200D7
:1027540015D0B2C5C5F5B3C5C6F582DD1AD0B2C56C
:10276400C5F5B3C5C6F5DCDC14D0B2C5C5F5B3C533
:10277400C6F5F9DD0ED0010E006E0BD00501B15186
:10278400000AE7E0B151010AEAE0B151020AEDE0C2
:04279400F2D7120066
:102798001ED0B2C5C5F5B3C5C6F5B4C5C7F53AEC84
:1027A8000BF020D0B2C5C5F5B3C5C6F5B4C5C7F59D
:1027B800B1EC0DF017D0B2C5C5F5B3C5C6F5B4C5B3
:1027C800C7F52CEC0DF00ED0010E006E0BD00501F4
:1027D800B151000ADEE0B151010AE4E0B151020A48
:0627E800EAE0F2D7120046
:1027EE002FD0B2C5C5F5B3C5C6F5B4C5C7F5B5C5C9
:1027FE00C8F528EC0CF032D0B2C5C5F5B3C5C6F598
:10280E00B4C5C7F5B5C5C8F5AAEC0CF027D0B2C54E
:10281E00C5F5B3C5C6F5B4C5C7F5B5C5C8F596ECCF
:10282E000AF01CD0B2C5C5F5B3C5C6F5B4C5C7F51B
:10283E00B5C5C8F52FEC0DF011D0010E006E0ED0FF
:10284E000501B151000ACDE0B151010AD5E0B151F7
:0E285E00020ADDE0B151100AE5E0EFD71200EA
:10286C004C0E0501C56F010EC66FB1C5C7F5B2C5DB
:10287C00C8F53EDF0201C05302E0F8DDFBD7B1C55D
:10288C00D7F5B2C5D8F5A60E0501D96F050EDA6FCE
:10289C003BEC09F0B1C5C5F5B2C5C6F50D0EC76F59
:1028AC00BEDC010E016E000E011815E0040E0501D0
:1028BC00B06FA8C5E1FFA9C5E2FF4C0EE66E010E94
:1028CC00E66EAE0EE66E050EE66EA6C500F0A7C56A
:1028DC0001F048EC01F00501A56BA36B010E0201A0
:1028EC00C06F05019A6B9B6B9C6B9D6B010E9E6F71
:0C28FC000201C05302E0BADDFBD712005D
:10290800CBC2E1FFCCC2E2FF010EE66EC9C200F005
:10291800CAC201F048EC01F02DEC0BF0CBC2E1FF8C
:10292800CCC2E2FFE66AC9C200F0CAC201F048ECB4
:1029380001F02DEC0BF0CBC2E1FFCCC2E2FF010E9F
:10294800E66EC9C200F0CAC201F048EC01F03FDEF1
:042958003EDE12004D
:10295C000501B76BB86BB1C5B9F5B2C5BAF5800E48
:10296C00B219006E800E005C02E1000EB15D0BE24C
:10297C00010EB76F000EB86FB1510008B96FB2C538
:10298C00BAF5000EBA57B9C5C5F5BAC5C6F5B3C583
:10299C00C7F5B4C5C8F59FEC0EF0060EB56F000E6A
:1029AC00B66F000E006EB651005C02E1B551000826
:1029BC0019E2B551B325E16EB651B421E26E010EA8
:1029CC00B55D006E000EB659016E0050B325E96E70
:1029DC000150B421EA6EEECFE6FF010EB55F000E9A
:1029EC00B65BDFD7B3C5E1FFB4C5E2FF200EE66EE0
:1029FC00B751B8111AE0B56BB66BB551B325E96E8A
:102A0C00B651B421EA6EEE50200A03E1B54BB62B59
:102A1C00F4D7010EB55F000EB65BB551B325E16E70
:0C2A2C00B651B421E26E2D0EE66E1200D1
:102A3800010ECD6E9E90F00ECF6E600ECE6E9D8014
:0E2A4800C00EF26E9D8A9E9AF28CF28E1200E3
:102A56000201C06B0501A46BA36BA56BB1C5DCF3CA
:102A6600B2C5DDF3B3C5DEF3B4C5DFF3B5C5D8F340
:102A7600B6C5D9F3B7C5DAF3B8C5DBF33B0EFD6FC0
:102A8600010EFE6F51EC02F000C0D4F301C0D5F385
:102A960002C0D6F303C0D7F30301D26BD36B010E8A
:102AA600D06F000ED16F0201CE6BCF6BD06B0501DC
:102AB600A56BA36B010E0201C06F0501A56BA36B8D
:102AC6000201C06B05019A6B9B6B9C6B9D6B010EA3
:102AD6009E6F9E6B966B976B986B996B010E0201BE
:062AE600CD6FCD6B120064
:102AEC000501B96BBA6BBB6BBC6BBD6BBE6BBF6BC3
:102AFC00C06BC16BC26BB1C5B5F5B2C5B6F5010EF5
:102B0C00B125C56F000EB221C66F2C0EC76F000E1B
:102B1C00C86FEAEC0EF000C0B7F501C0B8F5B90EFD
:102B2C00F36F050EF46FB5C5F5F5B6C5F6F5B551F1
:102B3C00005CF76FB6510158F86FAEEC04F0B3C5FA
:102B4C00C3F5B4C5C4F5B90EC56F050EC66F09EC57
:102B5C000FF048DDC3C5E1FFC4C5E2FF00C0E6FFCE
:102B6C0001C0E6FFB90EC56F050EC66FC76BC86B0B
:102B7C000A0EC96FA5DDB1C5C5F5B2C5C6F52C0EDB
:102B8C00C76F000EC86FEAEC0EF000C0B5F501C0BF
:102B9C00B6F5010E0024C56F000E0120C66F2C0E79
:102BAC00C76F000EC86FEAEC0EF000C0B7F501C09D
:102BBC00B8F5B90EF36F050EF46F020EB525026E63
:102BCC00000EB621036E02C0F5F503C0F6F50250F7
:102BDC00005CF76F03500158F86FAEEC04F0020E76
:102BEC00B325C36F000EB421C46FB90EC56F050EAB
:102BFC00C66F09EC0FF0F6DCC3C5E1FFC4C5E2FFFC
:102C0C0000C0E6FF01C0E6FFB90EC56F050EC66F2A
:102C1C00C76BC86B0A0EC96F53DDB7C5B5F5B8C520
:102C2C00B6F5010EB725C56F000EB821C66F2C0E78
:102C3C00C76F000EC86FEAEC0EF000C0B7F501C00C
:102C4C00B8F5B90EF36F050EF46F020EB525026ED2
:102C5C00000EB621036E02C0F5F503C0F6F5025066
:102C6C00005CF76F03500158F86FAEEC04F0040EE3
:102C7C00B325C36F000EB421C46FB90EC56F050E1A
:102C8C00C66F09EC0FF0AEDCC3C5E1FFC4C5E2FFB3
:102C9C0000C0E6FF01C0E6FFB90EC56F050EC66F9A
:102CAC00C76BC86B0A0EC96F0BDDB7C5B5F5B8C5D8
:102CBC00B6F5010EB725C56F000EB821C66F2C0EE8
:102CCC00C76F000EC86FEAEC0EF000C0B7F501C07C
:102CDC00B8F5B90EF36F050EF46F020EB525026E42
:102CEC00000EB621036E02C0F5F503C0F6F50250D6
:102CFC00005CF76F03500158F86FAEEC04F0060E51
:102D0C00B325C36F000EB421C46FB90EC56F050E89
:102D1C00C66F09EC0FF066DCC3C5E1FFC4C5E2FF6A
:102D2C0000C0E6FF01C0E6FFB90EC56F050EC66F09
:102D3C00C76BC86B0A0EC96FC3DCB7C5B5F5B8C590
:102D4C00B6F5010EB725C56F000EB821C66F2C0E57
:102D5C00C76F000EC86FEAEC0EF000C0B7F501C0EB
:102D6C00B8F5B90EF36F050EF46F020EB525026EB1
:102D7C00000EB621036E02C0F5F503C0F6F5025045
:102D8C00005CF76F03500158F86FAEEC04F0080EBE
:102D9C00B325C36F000EB421C46FB90EC56F050EF9
:102DAC00C66F09EC0FF01EDCC3C5E1FFC4C5E2FF22
:102DBC0000C0E6FF01C0E6FFB90EC56F050EC66F79
:102DCC00C76BC86B0A0EC96F7BDCB7C5B5F5B8C548
:102DDC00B6F5010EB725C56F000EB821C66F4F0EA4
:102DEC00C76F000EC86FEAEC0EF000C0B7F501C05B
:102DFC00B8F5B90EF36F050EF46F020EB525026E21
:102E0C00000EB621036E02C0F5F503C0F6F50250B4
:102E1C00005CF76F03500158F86FAEEC04F00A0E2B
:102E2C00B325C36F000EB421C46FB90EC56F050E68
:102E3C00C66F09EC0FF0F8EC12F0C3C5E1FFC4C586
:0C2E4C00E2FF00C0E6FF01C0E6FF12003C
:102E5800B4C5C5F5B5C5C6F5B6C5C7F558EC0AF08D
:102E6800B1C5C5F5B2C5C6F5B3C5C7F523EC0AF0BB
:022E7800120046
:102E7A000900F5CFE6FF0006FBE10106F9E11200C1
:102E8A0005019E5338E09AC504F09BC505F09CC520
:102E9A0006F09DC507F0010E9A25006E000E9B21D3
:102EAA00016E000E9C21026E000E9D21036E00C071
:102EBA009AF501C09BF502C09CF503C09DF5075029
:102ECA00AD5D08E10650AC5D05E10550AB5D02E180
:102EDA000450AA5D10E29E6B9A6B9B6B9C6B9D6B78
:102EEA00D00E0201CE25E16E020ECF21E26EE66A15
:102EFA00010E0501A56F0201CD533BE096C504F012
:102F0A0097C505F098C506F099C507F0010E0501A9
:102F1A009625006E000E9721016E000E9821026E12
:102F2A00000E9921036E00C096F501C097F502C004
:102F3A0098F503C099F50750000808E10650000803
:102F4A0005E10550000802E10450050812E20201F9
:102F5A00CD6B0501966B976B986B996BD00E02013E
:102F6A00CE25E16E020ECF21E26EE66A010E050160
:042F7A00A36F12002F
:102F7E000501A56BA36B010E0201C06F0501966BD7
:102F8E00976B986B996B010E0201CD6F06010C5178
:102F9E00000A08E1000E0201CF1902E1000ECE195F
:102FAE0001E113D00201D00ECE25E16E020ECF212B
:102FBE00E26E0CC6E6FF010ECE25006E000ECF218E
:102FCE00016E00C0CEF201C0CFF2000ECF5D02E165
:102FDE00C00ECE5D03E3010E0501A46F000E0201CB
:102FEE00CF1902E1CE51FF0A0AE1010ECE5D006E4D
:102FFE00000ECF59016E00C0CEF201C0CFF212000A
:10300E003CEC12F01F0E0501B16F000EB26F27DC03
:10301E00260E0501B16F000EB26F4C0EB36F020E8D
:10302E00B46F5DDD4CC2B1F54DC2B2F55C0EB36F3F
:10303E00020EB46F8CDCE40EFD6F000EFE6F010EFF
:10304E00FF6FEFEC01F05C0E0501FD6F020EFE6FDF
:10305E00020EFF6FEFEC01F04EC2B1F54FC2B2F5AA
:10306E005C0E0501B36F020EB46F71DCF00EFD6FD6
:10307E00000EFE6F010EFF6FEFEC01F05C0E05010E
:10308E00FD6F020EFE6F020EFF6FEFEC01F050C2ED
:10309E00B1F551C2B2F55C0E0501B36F020EB46FFD
:1030AE0056DC080EFD6F010EFE6F010EFF6FEFEC8A
:1030BE0001F05C0E0501FD6F020EFE6F020EFF6F3A
:1030CE00EFEC01F052C2B1F553C2B2F55C0E050140
:1030DE00B36F020EB46F3BDCFC0EFD6F000EFE6F85
:1030EE00010EFF6FEFEC01F05C0E0501FD6F020E9D
:1030FE00FE6F020EFF6FEFEC01F054C2B1F555C238
:10310E00B2F55C0E0501B36F020EB46F20DCAC0E8F
:10311E00FD6F000EFE6F010EFF6FEFEC01F05C0E07
:10312E000501FD6F020EFE6F020EFF6FEFEC01F058
:10313E0056C2B1F557C2B2F55C0E0501B36F020E61
:10314E00B46F05DCA00EFD6F000EFE6F010EFF6F5B
:10315E00EFEC01F05C0E0501FD6F020EFE6F020E2C
:10316E00FF6FEFEC01F0B80E0501FD6F000EFE6F64
:0E317E00020EFF6FEFEC01F0EBEC12F012000E
:10318C0055DCB70E0501B16F330EB26F000EB36F85
:10319C002D0EB46F340EB56F000EB66F57DE4C0E9D
:1031AC00B16F070EB26FF30EB36F050EB46FDC0E7A
:1031BC00B56F050EB66F000EB76FB86F46DC84ECBA
:1031CC0014F0150E0B6E4B0E0C6EBE0E0D6E0D2EFE
:1031DC00FED70C2EFCD70B2EFAD700008A0E050159
:1031EC00B16F000EB26F36EC14F0970E0501B16F93
:1031FC00000EB26F36EC14F08D0E0501B16F000E9F
:10320C00B26F36EC14F0290E0B6E960E0C6E7F0E10
:10321C000D6E0D2EFED70C2EFCD70B2EFAD71200EE
:10322C000501B16B070EB26F010EB36FAAEC13F070
:10323C000501B16B010EB26FB36BAAEC13F0050173
:10324C00B16B390EB26F340EB36F000EB46FCCECA1
:10325C0013F0020E0501B16F000EB26FC20EB36F08
:10326C00010EB46F000EB56FF7EC13F0CE0E050126
:10327C00FD6F000EFE6F020EFF6FEFEC01F01200FF
:0E328C001FEC1AF0CDDF7CDFBCDEFED7FFD7D3
:10343E0010EE1FF01D0E006E020E016E9A0EF66E4D
:0E344E00320EF76E000EF86E3DEC17F0120015
:07329A00415444415441007E
:1032A100000000000000000000000000000000001D
:1032B100000000000000000000000000000000000D
:1032C10000000000000000000000000000000000FD
:1032D10000000000000000000000000000000000ED
:1032E10000000000000000000000000000000000DD
:1032F10000000000000000000000000000000000CD
:0433010000000000C8
:0333050041540030
:0A33080041545443534D443D32003C
:0933120041544741494E3D32008F
:0C331B002D2D20572076616C75653A005E
:0C3327002D2D20562076616C75653A0053
:103333002D2D2D2D2D2D2D2D2D2D2D2D2D2D2D2DBA
:063343002D2D2D2D2D00A3
:10334900202D2D2D2053797374656D20696E697454
:06335900202D2D2D2000A7
:0C335F002D2D20522076616C75653A001F
:0C336B002D2D20532076616C75653A0012
:0C3377002D2D20552076616C75653A0004
:0C3383002D2D20542076616C75653A00F9
:10338F000000002B0000230000240000255C002615
:05339F00000000000029
:1033A4000000003D3F003F00003D00003A00000DDA
:0233B400000017
:0133B6000016
:1033B70074020B064A020B0620020B0612020B06CA
:1033C7003C020B062E020B0684010B06CE000B06F1
:1033D700C0000B06F8000B065A010B0622010B066C
:1033E70024030000B00600005E060000EC060000A3
:1033F700E2060000D80600002E030000A403000028
:10340700CE060000C4060000A60600008E040000D9
:0134170000B4
:0134180000B3
:0134190000B2
:01341A0000B1
:01341B0000B0
:10341C0000000000000000000000000000000000A0
:01342C00009F
:0C342D00CC010B06B80300001A030000DD
:0434390000C20100CC
:020000040030CA
:0E00000015137F7CF98B91FFFFC0FFE0FF40DE
:00000001FF
